:020000040800F2
:100000003835002031020008DD27000847260008A7
:10001000D9270008570800089D2D0008000000009F
:10002000000000000000000000000000990100082E
:100030009908000800000000DD01000825290008DB
:100040004B0200084B0200084B0200084B0200085C
:100050004B0200084B0200084B0200084B0200084C
:100060004B0200084B0200084B0200084B0200083C
:100070004B0200084B0200085D0800084B02000814
:100080004B0200084B0200084B0200084B0200081C
:100090008D2D00084B0200084B0200084B0200089F
:1000A0004B0200084B0200084B0200084B020008FC
:1000B0004B0200084B0200084B0200084B020008EC
:1000C0004B0200084B0200084B0200084B020008DC
:1000D0004B0200087D2D00084B0200084B0200086F
:1000E0004B0200084B0200084B02000800F002F827
:1000F00000F042F80AA090E8000C82448344AAF180
:100100000107DA4501D100F037F8AFF2090EBAE87D
:100110000F0013F0010F18BFFB1A43F0010318473B
:10012000544D0000744D0000103A24BF78C878C1C7
:10013000FAD8520724BF30C830C144BF04680C60ED
:10014000704700000023002400250026103A28BF35
:1001500078C1FBD8520728BF30C148BF0B60704739
:10016000752900F0C980782900F0028100207047CD
:100170001FB51FBD10B510BD00F033FB1146FFF7D2
:10018000F7FF02F033FE00F051FB03B4FFF7F2FF7C
:1001900003BC00F059FB0000224B19680868B0E866
:1001A000F00F80F30988BFF36F8F4FF0000080F3EA
:1001B00011884EF00D0E70470000000006480068E0
:1001C000006880F3088862B661B6BFF34F8FBFF353
:1001D0006F8F00DF00BF00BF08ED00E0EFF3098084
:1001E000BFF36F8F0F4B1A6820E9F00F106008B54E
:1001F0004FF0500080F31188BFF34F8FBFF36F8F24
:1002000003F0EAFE4FF0000080F31188BDE80840DB
:1002100019680868B0E8F00F80F30988BFF36F8FA2
:10022000704700BF38000020EFF3058070470000E2
:100230000948804709480047FEE7FEE7FEE7FEE77A
:10024000FEE7FEE7FEE7FEE7FEE7FEE704480549B6
:10025000054A064B70470000A5290008ED0000087C
:10026000382F002038350020383100203831002068
:100270000FB47CB50C0009AA009001D02044401EA8
:10028000084B7B4469460190089800F036FA054611
:100290001CB10020694600F043FA28467CBC5DF89A
:1002A00014FB0000A504000070B5044685690068D1
:1002B000C10601D5302600E02026C00707D070BD5A
:1002C000D4E9012130469047206A401C20626D1E0F
:1002D000F6D570BD70B5044685690078C00707D1B2
:1002E00070BDD4E9012120209047206A401C206283
:1002F0006D1EF6D570BD00002DE9F04106460024C4
:1003000010687529314616A510D0AFF3008000287B
:1003100002DA404213A507E031688A0701D512A529
:1003200002E0490704D511A5012401E0AFF30080E4
:1003300000210A2206F1240709E0B0FBF2FCB0FB21
:10034000F2F302FB1C00303078541846491C002898
:10035000F3D123462A463046BDE8F04100F06FB99C
:10036000000000002D0000002B0000002000000015
:1003700070B504460D4621461068AFF30080218811
:10038000090502D50F4A7A4402E00E4A7A440E3239
:10039000002104F1240305E000F00F060009965D3A
:1003A0005E54491C0028F7D120780023000704D5AB
:1003B000702D02D009B1022311322046BDE87040F1
:1003C00000F03DB9584A00002DE9F05F8946044627
:1003D0004FF0000ADFF874B1FB44C0F820A02046BB
:1003E000E1688847002874D0252806D0D4E9012187
:1003F0009047206A401C2062F1E700265F462046B5
:10040000E16888472028054607DB312D05D2781999
:1004100010F8200C08B10643F1E7B00701D526F02B
:100420000406C4F81CA00027C4F818A02A2D09D07F
:10043000284602F0D4FC38B304EB8708303DC8F8F6
:10044000185019E059F8041B204604EB870291610B
:10045000E1688847012F054618D1E069002820DAB5
:1004600026F020061DE0D8F8180000EB800005EB10
:1004700040003038C8F818002046E1688847054633
:1004800002F0ADFC0028EED1012F0AD02E2D08D1AC
:100490002046E16888477F1C0546022F46F020066B
:1004A000C4DBA069002803DA404246F00106A061DF
:1004B000F00701D026F010066C2D0BD0682D09D066
:1004C0004C2D39D06A2D35D0742D35D07A2D33D0BE
:1004D00016E038E0E1682F4620468847B8420546D6
:1004E00009D16C2F26D04FF48060E1680643204686
:1004F0008847054604E06C2F1AD04FF480700643FD
:100500000DB3A5F14100192802D8203546F4006644
:100510004A462946204626604E46FFF721FE80B116
:1005200001280BD0F61D26F0070000F1080956E758
:100530004020E4E78020D8E70020D6E706F1040950
:100540004DE7284652E7206ABDE8F09F2E4A00009A
:10055000032A40F2308010F0030C00F0158011F8EF
:10056000013BBCF1020F624498BF11F801CB00F8C7
:10057000013B38BF11F8013BA2F1040298BF00F81B
:1005800001CB38BF00F8013B11F0030300F0D58028
:10059000083AC0F0088051F8043B083A51F804CBFF
:1005A000A0E80810F5E7121D5CBF51F8043B40F8C5
:1005B000043BAFF30080D20724BF11F8013B11F8D0
:1005C00001CB48BF11F8012B24BF00F8013B00F814
:1005D00001CB48BF00F8012B704702F0FF0343EA4C
:1005E000032242EA024200F0DCB84FF0000200B5FC
:1005F000134694469646203922BFA0E80C50A0E846
:100600000C50B1F12001BFF4F7AF090728BFA0E8F3
:100610000C5048BF0CC05DF804EB890028BF40F8BF
:10062000042B08BF704748BF20F8022B11F0804F01
:1006300018BF00F8012B70477047704770472DE9CD
:10064000F0470D4699469246044600F12408016899
:10065000880604D5E06921F01001216000E0012046
:10066000A84201DD471B00E00027A1697A1902EBCF
:100670000900081AA0612078C00602D42046FFF7BE
:1006800013FE002608E0D4E901211AF8060090477D
:10069000206A401C761C20624E45F4DB2078C006A0
:1006A0000AD52046FFF700FE06E0D4E901213020FC
:1006B0009047206A401C2062381EA7F10107F4DC35
:1006C00007E0D4E9012118F805009047206A401C92
:1006D0002062281EA5F10105F3DC2046FFF7FAFD94
:1006E0002078000602D50220BDE8F0870120FBE754
:1006F00001694A1C02610878704700B58FB0CDE9E6
:1007000001310021059105497944CDE903101146D5
:100710006846FFF759FE0FB000BD0000E5FFFFFF80
:100720000A6802F8010B0A607047D1E900239A4277
:1007300002D2531C0B601070704710B5203AC0F005
:100740000B80B1E81850203AA0E81850B1E81850D2
:10075000A0E81850BFF4F5AF5FEA027C24BFB1E80F
:100760001850A0E8185044BF18C918C0BDE8104080
:100770005FEA827C24BF51F8043B40F8043B08BF89
:100780007047D20728BF31F8023B48BF11F8012B50
:1007900028BF20F8023B48BF00F8012B70474FF0FC
:1007A00000020429C0F0128010F0030C3FF41FAFC8
:1007B000CCF1040CBCF1020F18BF00F8012BA8BF4C
:1007C00020F8022BA1EB0C01FFF711BF5FEAC17CFF
:1007D00024BF00F8012B00F8012B48BF00F8012BC3
:1007E0007047754600F02CF8AE4605006946534642
:1007F00020F00700854618B020B5FFF727FDBDE8BB
:1008000020404FF000064FF000074FF000084FF077
:10081000000B21F00701AC46ACE8C009ACE8C00908
:10082000ACE8C009ACE8C0098D46704710B5044675
:10083000AFF300802046BDE81040FFF7A6BC0000E3
:1008400000487047D42E002001491820ABBEFEE7B7
:1008500026000200704700BFFEE7000010B5024806
:1008600000F030FD10BD00007401002030B590F89C
:1008700040500124AC40C56B6C6004686360446800
:10088000102C04D10468A2600468E16003E00468ED
:10089000A1600468E26030BD704772B600BFFEE739
:1008A00010B5024692F82030012B01D0022B06D160
:1008B00010684069084314686061002010BD506AE8
:1008C00040F4802050620120F8E7F0B504460D4660
:1008D0001E4694F8207020688368A86800B900E07C
:1008E00000BF012F01D0022F7DD103F0806030B90D
:1008F00003F0006018B903F0805000287ED0C3F3E5
:100900000161012088403060A86860B9B5F800C076
:10091000E86840EA4C5C206800F5C07000EB01100C
:10092000C0F800C00FE0D5E901C040EACC00D5F81E
:100930000CC040EA0C00D4F800C00CF5C07C0CEBF5
:10094000011CCCF80000D5F810C0206800F5C0707C
:1009500000EB0110C0F804C0287D01280ED12068EA
:1009600000F5C07000EB0110406840F4807C206806
:1009700000F5C07000EB0110C0F804C0D07900068B
:1009800092F806C040EA0C4092F805C040EA0C20FC
:1009900092F804C040EA0C00D4F800C00CF5C07C0A
:1009A0000CEB011CCCF80C00D078000692F802C0C9
:1009B00040EA0C4092F801C040EA0C2092F800C0D6
:1009C00040EA0C00D4F800C00CF5C07C0CEB011C14
:1009D000CCF80800206800F5C07000EB011000683A
:1009E00040F0010C01E00FE008E0206800F5C07065
:1009F00000EB0110C0F800C00020F0BD606A40F4B8
:100A0000001060620120F8E7606A40F480206062B4
:100A10000120F2E7F0B504460A46216894F8205018
:100A2000012D01D0022D74D1D1F8000240F0010057
:100A3000C1F80002107D00F01F06012000FA06F345
:100A4000D1F81C029843C1F81C02D069C8B9D1F88A
:100A50000C029843C1F80C02908880B2968940EA53
:100A6000064601F51070576940F83760108880B26B
:100A7000168940EA064601F51070576900EBC70079
:100A80004660D069012819D1D1F80C021843C1F889
:100A90000C02908880B2168840EA064601F5107074
:100AA000576940F83760908980B2168940EA064657
:100AB00001F51070576900EBC7004660906928B9CE
:100AC000D1F804029843C1F8040204E0D1F804020A
:100AD0001843C1F80402106928B9D1F814029843E8
:100AE000C1F8140204E0D1F814021843C1F814024A
:100AF000106A012804D1D1F81C021843C1F81C0265
:100B0000D1F8000220F00100C1F800020020F0BD81
:100B1000FFE7606A40F4802060620120F7E77047D9
:100B200070B5044694F82050012D01D0022D7DD1DE
:100B300051B92068C06800F0030080B9606A40F4D1
:100B400000106062012070BD2068006900F00300A1
:100B500028B9606A40F4001060620120F3E7206861
:100B600000F5D87000EB0110006800F00400906000
:100B7000906840B9206800F5D87000EB011000685B
:100B8000400D106007E0206800F5D87000EB011000
:100B90000068C0085060206800F5D87000EB0110B4
:100BA000006800F00200D060206800F5D87000EB0B
:100BB0000110406800F00F00082802D308201061DF
:100BC00008E0206800F5D87000EB0110406800F0E4
:100BD0000F001061206800F5D87000EB011040682C
:100BE00000F47F40000A9061206800F5D87000EBA7
:100BF00001104068000C5061206800F5D87000EBCF
:100C0000011080681870206800F5D87000EB0110A2
:100C1000806800F47F40000A5870206800F5D870A2
:100C200000EB0110806800F47F0000E03CE0000C65
:100C30009870206800F5D87000EB01108068000EF5
:100C4000D870206800F5D87000EB0110C0681871EA
:100C5000206800F5D87000EB0110C06800F47F40F8
:100C6000000A5871206800F5D87000EB0110C068C8
:100C700000F47F00000C9871206800F5D87000EB3C
:100C80000110C068000ED87131B92068C06840F00A
:100C900020002668F06005E02068006940F0200030
:100CA0002668306100204EE7606A40F48020606270
:100CB000012048E72DE9F05F0446002520684669D9
:100CC0002068D0F80490206887682068D0F80CA0CD
:100CD0002068D0F810B02068D0F8188006F0010025
:100CE000002855D007F00100C0B1012021688860BC
:100CF00007F0020018B1204600F05BFA0EE007F0A2
:100D0000040010B145F4006508E007F0080010B1D8
:100D100045F4805502E0204600F04AFA07F480705E
:100D2000C8B14FF480702168886007F4007018B172
:100D3000204600F040FA0EE007F4806010B145F460
:100D4000005508E007F4006010B145F4804502E06A
:100D5000204600F02FFA07F48030C8B14FF48030FD
:100D60002168886007F4003018B1204600F025FAA9
:100D70000EE007F4802010B145F4004508E007F4C8
:100D8000002010B145F4803502E0204600F014FA4E
:100D900006F0080038B10AF0100020B145F40075E3
:100DA00010202168C86006F0040040B10AF0080075
:100DB00028B108202168C860204600F0A9F906F093
:100DC000020038B12068C06800F0030010B120466E
:100DD00000F0A0F906F0400038B10BF0100020B18F
:100DE00045F4806510202168086106F0200040B1BC
:100DF0000BF0080028B1082021680861204600F0A7
:100E0000A5F906F0100038B12068006900F0030071
:100E100010B1204600F09BF906F4003040B109F013
:100E2000100028B1102021684860204600F090F999
:100E300006F4803040B109F0080028B1082021688C
:100E40004860204600F0BAF906F4004088B309F083
:100E5000040078B306F4807020B108F0010008B1F6
:100E600045F0010506F4007020B108F0020008B159
:100E700045F0020506F4806020B108F0040008B1D6
:100E800045F0040506F40060A0B108F0700088B1D8
:100E900008F07000402817D006DC10280BD020285E
:100EA0000CD0302819D10CE0502810D0602814D173
:100EB00010E01DE019E045F008050FE045F01005D1
:100EC0000CE045F0200509E045F0400506E045F05E
:100ED000800503E045F4807500E000BF00BF206896
:100EE000806920F0700021688861042021684860D2
:100EF0002DB1606A284360622046FFF710FEBDE80E
:100F0000F09F70B504460CB9012070BD94F8200024
:100F100010B9204600F0B0F82068006840F00100E9
:100F20002168086000F0BEFC05460DE000F0BAFC48
:100F3000401B0A2808D9606A40F40030606205202E
:100F400084F820000120E0E72068406800F00100FC
:100F50000028EBD02068006820F0020021680860BB
:100F600000F0A0FC05460DE000F09CFC401B0A28A8
:100F700008D9606A40F400306062052084F82000DF
:100F80000120C2E72068406800F002000028EBD191
:100F9000207E012806D12068006840F0800021688A
:100FA000086005E02068006820F080002168086083
:100FB000607E012806D12068006840F0400021686A
:100FC000086005E02068006820F0400021680860A3
:100FD000A07E012806D12068006840F0200021682A
:100FE000086005E02068006820F0200021680860A3
:100FF000E07E012806D12068006820F010002168FA
:10100000086005E02068006840F010002168086072
:10101000207F012806D12068006840F00800216880
:10102000086005E02068006820F00800216808607A
:10103000607F012806D12068006840F00400216824
:10104000086005E02068006820F00400216808605E
:10105000D4E90201084321690843616908436168D2
:10106000491E08432168C86100206062012084F89D
:101070002000002049E7000010B586B0044600209B
:1010800002900390049005901E492068884236D152
:1010900000BF1D48C06940F000701B49C861084688
:1010A000C06900F00070019000BF00BF00BF08469B
:1010B000806940F0040088610846806900F00400FF
:1010C000019000BF00BFC81402900020039004905C
:1010D00002A90E4800F046FA4FF480500290022018
:1010E00003900320059002A9084800F03BFA002273
:1010F0000121142000F062FC142000F04FFC06B027
:1011000010BD0000006400400010024000080140D3
:101110007047000010B504460849206888420BD18A
:10112000074B084A00212046FFF7FAFC20B9064881
:101130000068401C0449086010BD000000640040C5
:1011400009000020300100201C000020704770477B
:10115000704770B5044694F82000012822D102207F
:1011600084F820002068006820F0010021680860F1
:1011700000F098FB05460DE000F094FB401B0A28A8
:1011800008D9606A40F400306062052084F82000CD
:10119000012070BD2068406800F001000028EBD1FC
:1011A0006062F6E7606A40F4002060620120F0E7C8
:1011B00070477047704770477047704770470146E7
:1011C000002291F82100022808D00420886300BF83
:1011D000002081F8200000BF0120704708680068E7
:1011E00020F00E000B6818600868006820F001000D
:1011F0000B68186091F8403001209840CB6B586024
:10120000012081F8210000BF002081F8200000BFEC
:101210001046E2E770B50446002594F82100022844
:1012200003D00420A063012548E02068006820F076
:101230000E00216808602068006820F00100216825
:1012400008601F492068884201D1012026E01C491E
:1012500014312068884201D110201FE0184928313C
:101260002068884201D1801518E015493C3120687A
:10127000884201D1801411E0114950312068884220
:1012800002D14FF4803009E00D4964312068884272
:1012900002D14FF4801001E04FF080700849083906
:1012A0004860012084F8210000BF002084F820005D
:1012B00000BF606B10B12046616B8847284670BD47
:1012C0000800024070B50446E06B056820680668B7
:1012D00094F84010042088402840002846D006F0AA
:1012E0000400002842D02068006800F0200028B9DF
:1012F0002068006820F004002168086057492068D1
:10130000884201D1042027E05449143120688842E2
:1013100001D1402020E0514928312068884201D184
:10132000001519E04D493C312068884202D14FF444
:10133000804011E0494950312068884202D14FF481
:10134000802009E0454964312068884202D14FF489
:10135000800001E04FF08060404908394860E06A51
:1013600000287AD02046E16A884776E094F8401059
:10137000022088402840A0B306F0020088B320680D
:10138000006800F0200040B92068006820F00A00E2
:1013900021680860012084F82100304920688842D3
:1013A00001D1022028E02D4914312068884201D162
:1013B000202021E0294928312068884201D14015A8
:1013C0001AE026493C312068884202D14FF400508F
:1013D00012E0224950312068884203D14FF4003096
:1013E0000AE017E01D4964312068884202D14FF4B9
:1013F000001001E04FF0007018490839486000BF44
:10140000002084F8200000BFA06A30B32046A16A03
:10141000884722E094F84010082088402840E0B136
:1014200006F00800C8B12068006820F00E002168AE
:10143000086094F8401001208840E16B486001206A
:10144000A06384F8210000BF002084F8200000BFC2
:10145000206B10B12046216B884770BD0800024008
:101460000146002209B901207047164B0868C01ACE
:101470001423B0FBF3F08000086412480838C863F6
:10148000022081F821000868026843F6F070824368
:10149000D1E901031843CB6818430B6918434B6922
:1014A00018438B691843CB691843024308680260EC
:1014B00000208863012081F82100002081F82000AD
:1014C00000BFD1E7080002402DE9F04104460D4677
:1014D00016461F464FF0000800BF94F82000012870
:1014E00002D10220BDE8F081012084F8200000BF75
:1014F00094F8210001282CD1022084F8210000203A
:10150000A0632068006820F00100216808603B4665
:10151000324629462046FFF7A9F9E06A30B1206833
:10152000006840F00E00216808600BE02068006849
:1015300020F00400216808602068006840F00A007C
:10154000216808602068006840F001002168086098
:1015500006E000BF002084F8200000BF4FF0020822
:101560004046BFE72DE9F8470346002294466EE166
:101570004FF0010808FA02F4D1F8008008EA0400EC
:10158000A0427DD1DFF8DCA2D1F80480A8EB0A09E3
:10159000D0453AD014DCB8F1030F50D009DCB8F1D3
:1015A000000F31D0B8F1010F1CD0B8F1020F49D1B2
:1015B00020E0B8F1110F18D0B8F1120F42D11EE09F
:1015C000B9F5881F25D006DCB9F5803F20D0B9F5E4
:1015D000801F37D11AE0B9F5001F18D0B9F5041FE4
:1015E00030D117E0D1F80CC02DE0D1F80C8008F113
:1015F000040C28E0D1F80C8008F1080C23E0D1F8A5
:101600000C8008F10C0C1EE000BF00BF00BF00BF43
:1016100000BF00BFD1F80880B8F1000F02D14FF031
:10162000040C0BE0D1F80880B8F1010F03D14FF0A2
:10163000080C1C6102E04FF0080C5C6103E04FF005
:10164000000C00E000BF00BFFF2801D8984601E071
:1016500003F104084646FF2802D84FEA820803E057
:10166000A2F108084FEA88084746D6F800804FF0F4
:101670000F0909FA07F928EA09080CFA07F900E046
:1016800088E048EA0908C6F80080D1F8048008F02C
:101690008058B8F1805F7DD100BFDFF8CC81D8F8E9
:1016A000188048F00108DFF8C091C9F81880C846D2
:1016B000D8F8188008F00108CDF8008000BF00BFFE
:1016C0004FEAB9384FEA920958F829504FEA827820
:1016D0004FEA18794FF00F0808FA09F825EA0805CB
:1016E000DFF88881434502D14FF0000816E0DFF8AB
:1016F0008081434502D14FF001080FE0DFF874818B
:10170000434502D14FF0020808E0DFF86C81434501
:1017100002D14FF0030801E04FF004084FEA82794C
:101720004FEA197908FA09F848EA0505DFF84C810B
:101730004FEA920948F82950D1F8048008F480183B
:10174000B8F5801F0AD1DFF83881D8F8008048EA60
:101750000008DFF82C91C9F8008009E0DFF820814B
:10176000D8F8008028EA0008DFF81491C9F8008052
:10177000D1F8048008F40018B8F5001F10D1DFF884
:10178000008108F10408D8F8008048EA0008DFF872
:10179000F09000E05AE009F10409C9F800800DE07A
:1017A000DFF8DC8008F10408D8F8008028EA000897
:1017B000DFF8CC9009F10409C9F80080D1F8048061
:1017C00008F40038B8F5003F0ED1DFF8B480A8F176
:1017D0000408D8F8008048EA0008DFF8A490A9F1CE
:1017E0000409C9F800800DE0DFF89480A8F104082E
:1017F000D8F8008028EA0008DFF88490A9F10409ED
:10180000C9F80080D1F8048008F48038B8F5803F2A
:101810000ED1DFF86C80A8F10808D8F8008048EAFB
:101820000008DFF85C90A9F10809C9F800800DE014
:10183000DFF84C80A8F10808D8F8008028EA0008F2
:10184000DFF83C90A9F10809C9F80080521CD1F8D2
:10185000008028FA02F8B8F1000F7FF489AEBDE8E5
:10186000F88700000000111000100240000801403D
:10187000000C01400010014000140140080001402C
:101880000804014010B5C26821EA020302EA01041B
:1018900043EA0443036110BD0AB1016101E00B0496
:1018A000036170470148006870470000280000206D
:1018B00003480068034909780844014908607047F3
:1018C000280000203000002010B50848006840F0D3
:1018D000100006490860032000F0AEF80F2000F069
:1018E00007F800F02BF8002010BD00000020024097
:1018F00070B504460E4800784FF47A71B1FBF0F0F1
:101900000C490968B1FBF0F5284600F0FFFB08B16F
:10191000012070BD102C07D200222146501E00F07D
:101920004DF80548046001E00120F2E70020F0E7EF
:1019300030000020340000202C00002008B500BF3B
:101940001448806940F001001249886108468069A6
:1019500000F00100009000BF00BF00BF0846C06952
:1019600040F08050C8610846C06900F08050009087
:1019700000BF00BF00220F21901E00F01FF800BF23
:101980000549486820F0E06040F00070486000BF02
:1019900008BD00000010024000000140014608465A
:1019A000002809DB00F01F0301229A4043099B0035
:1019B00003F1E023C3F8002100BF70472DE9F05F79
:1019C00080460D461646002701F0EAF907463946DB
:1019D0002A46334601F00700C0F1070ABAF1040FA6
:1019E00002D94FF0040A01E0C0F1070AD14600F124
:1019F000040ABAF1070F02D24FF0000A01E0A0F189
:101A0000030AD4464FF0010A0AFA09FAAAF1010AB8
:101A10000AEA020A0AFA0CFA4FF0010B0BFA0CFB65
:101A2000ABF1010B0BEA030B4AEA0B0421464046DB
:101A300001F0BEF9BDE8F09F00BF00F00702064BC1
:101A400019684FF6FF031940044B0B4343EA022188
:101A5000014B196000BF70470CED00E00000FA0573
:101A600070B504460D460CB9012070BD5A48006897
:101A700000F00700A8420ED25748006820F0070087
:101A80002843554908600846006800F00700A8424E
:101A900001D00120E9E7207800F0020002281DD1E2
:101AA000207800F00400042805D14C48406840F438
:101AB000E0604A494860207800F00800082805D115
:101AC0004648406840F46050444948604348406894
:101AD00020F0F000A168084340494860207800F0F9
:101AE000010078B36068012806D13C48006800F422
:101AF000003090B90120B8E76068022806D1374865
:101B0000006800F0007040B90120AEE7334800687B
:101B100000F0020008B90120A7E73048406820F033
:101B20000300616808432D494860FFF7BBFE064685
:101B300009E0FFF7B7FE801B41F28831884202D9E5
:101B4000032092E707E02548406800F00C00616838
:101B5000B0EB810FEDD12048006800F00700A842EB
:101B60000ED91D48006820F0070028431A49086074
:101B70000846006800F00700A84201D0012074E781
:101B8000207800F00400042807D11448406820F4AD
:101B9000E060E168084311494860207800F00800DF
:101BA000082808D10D48406820F46050216940EAB7
:101BB000C1000A49486000F03FF808494968C1F38C
:101BC0000311074A515CC84006490860064800688E
:101BD000FFF78EFE002048E7002002400010024080
:101BE000CA4D0008340000202C0000200148006885
:101BF000704700003400002000B5FFF7F7FF0449EC
:101C00004968C1F30221034A515CC84000BD00008D
:101C100000100240DA4D000800B5FFF7E7FF044965
:101C20004968C1F3C221034A515CC84000BD0000AD
:101C300000100240DA4D000870B500210022002497
:101C400000230020134D696801F00C05F5B1042D47
:101C500002D0082D19D101E00F4819E00F4DC1F352
:101C60008346AB5D01F4803555B10A4D6D68C5F30F
:101C700040450B4E725D084D5D43B5FBF2F402E04A
:101C8000084D03FB05F4204602E000BF024800BFF8
:101C900000BF70BD0010024000127A00B84D00086D
:101CA000C84D000800093D00F8B504460CB90120F4
:101CB000F8BD207800F00100002878D0F84840688E
:101CC00000F00C0004280CD0F548406800F00C002F
:101CD000082811D1F248406800F48030B0F5803F08
:101CE0000AD1EF48006800F4003000285FD0606837
:101CF00000285CD10120DBE700BF6068B0F5803FC1
:101D000006D1E748006840F48030E549086028E0E3
:101D1000606858B9E248006820F48030E049086003
:101D20000846006820F4802008601AE06068B0F57A
:101D3000A02F0BD1DA48006840F48020D849086011
:101D40000846006840F4803008600AE0D448006823
:101D500020F48030D24908600846006820F48020D2
:101D6000086000BF606888B1FFF79CFD054606E08B
:101D7000FFF798FD401B642801D9032098E7C84865
:101D8000006800F400300028F2D010E0FFF78AFD70
:101D9000054606E0FFF786FD401B642801D90320B5
:101DA00086E7BF48006800F400300028F2D12078B0
:101DB00000F00200022857D1B948406800F00C003A
:101DC00050B1B748406800F00C00082818D1B4485A
:101DD000406800F4803098B9B148006800F0020013
:101DE00020B12069012801D0012061E7AC480068DA
:101DF00020F0F800616940EAC100A949086033E0B9
:101E00002069E8B10120A7490860FFF74BFD0546AE
:101E100006E0FFF747FD401B022801D9032047E7F2
:101E20009F48006800F002000028F2D09C4800683B
:101E300020F0F800616940EAC1009949086013E0A8
:101E4000002098490860FFF72DFD054606E0FFF7E2
:101E500029FD401B022801D9032029E7904800688A
:101E600000F002000028F2D1207800F008000828D5
:101E70002DD1A069B8B101208B490860FFF712FD90
:101E8000054606E0FFF70EFD401B022801D903209E
:101E90000EE78348406A00F002000028F2D00120DB
:101EA00000F09EFC13E000207F490860FFF7FAFC79
:101EB000054606E0FFF7F6FC401B022801D9032087
:101EC000F6E67748406A00F002000028F2D1207858
:101ED00000F00400042873D100277148C06900F0A5
:101EE000805070B900BF6E48C06940F080506C49A6
:101EF000C8610846C06900F08050009000BF00BF74
:101F000001276A48006800F48070B0B9674800682B
:101F100040F4807065490860FFF7C4FC054606E0A0
:101F2000FFF7C0FC401B642801D90320C0E65F48CE
:101F3000006800F480700028F2D000BFE06801283B
:101F400006D15748006A40F001005549086227E071
:101F5000E06858B95248006A20F001005049086210
:101F60000846006A20F00400086219E0E0680528CD
:101F70000BD14B48006A40F004004949086208460A
:101F8000006A40F0010008620AE04548006A20F05B
:101F90000100434908620846006A20F00400086214
:101FA00000BFE068A0B1FFF77DFC054609E0FFF740
:101FB00079FC401B41F28831884202D9032077E640
:101FC00022E03748006A00F002000028EFD012E05B
:101FD000FFF768FC054608E0FFF764FC401B41F290
:101FE0008831884201D9032062E62D48006A00F05A
:101FF00002000028F0D1012F05D12948C06920F046
:1020000080502749C86100BFE069C8B324484068D0
:1020100000F00C00082860D0E069022848D10020B8
:1020200020490866FFF73EFC054606E0FFF73AFC4C
:10203000401B022801D903203AE61948006800F045
:1020400000700028F2D1206AB0F5803F07D1144813
:10205000406820F40030A168084311494860D4E981
:10206000080108430E49496821F4741108430C49DA
:10207000486001200B490866FFF714FC054607E09D
:102080003DE0FFF70FFC401B022801D903200FE6BB
:102090000348006800F000700028F2D02FE0000034
:1020A00000100240000042428004424200700040A2
:1020B000002014490866FFF7F5FB054606E0FFF728
:1020C000F1FB401B022801D90320F1E50E4800680E
:1020D00000F000700028F2D111E0E069012800D181
:1020E000E6E50948466806F48031206A814204D159
:1020F00006F47011606A814201D00120D8E5002009
:10210000D6E50000000042420010024070B50446CF
:102110002546681EB0F1807F01D301200FE0681EC4
:102120004FF0E02148610F214FF0FF3000F040FEFA
:1021300000204FF0E021886107200861002070BD79
:10214000704770472DE9F84F0446206805682068FD
:10215000C668206847694FF00009CA4605F00F09B4
:10216000B9F1000F0AD105F0200038B106F02000C7
:1021700020B1204600F0D5FCBDE8F88FB9F1000F82
:102180007BD007F0010018B906F49070002874D0D5
:1021900005F0010030B106F4807018B1606C40F0B9
:1021A0000100606405F0040030B107F0010018B1CF
:1021B000606C40F00200606405F0020030B107F08E
:1021C000010018B1606C40F00400606405F0080084
:1021D00048B106F0200010B907F0010018B1606C9A
:1021E00040F008006064606C002845D005F02000D5
:1021F00028B106F0200010B1204600F092FC2068C3
:102200004069C0F3801A606C00F0080010B9BAF1A0
:10221000000F2CD0204600F02BFC2068406900F015
:10222000400000B300BF00BF2168143151E8001F17
:1022300021F040002168143141E80002002AF3D166
:1022400000BFE06B50B17748E16B4863E06BFEF78D
:10225000E1FF88B1E06B416B88470DE02046FFF756
:1022600070FF09E009E02046FFF76BFF04E020461D
:10227000FFF767FF002060647EE7206B012877D1BD
:1022800005F01000002873D006F010000028FAD0E6
:1022900000BF00200090206800680090206840681F
:1022A000009000BF00BF2068406900F04000002897
:1022B0005FD0E06B006840681FFA80F8B8F1000F4B
:1022C00055D0A08D404552DDA4F82E80E06B80698A
:1022D000202843D000BF00BF21680C3151E8001F07
:1022E00021F4807021680C3141E80002002AF3D10A
:1022F00000BF00BF00BF2168143151E8001F21F06A
:1023000001002168143141E80002002AF3D100BF26
:1023100000BF00BF2168143151E8001F21F04000C8
:102320002168143141E80002002AF3D100BF2020C7
:1023300084F842000020206300BF00BF21680C31F8
:1023400051E8001F21F0100021680C3141E8000223
:10235000002AF3D100BFE06BFEF731FF022060637B
:10236000A08DE28D801A81B22046FFF7E9FE03E7D7
:1023700042E0A08DE18D401A1FFA80F8E08DD0B3C5
:10238000B8F1000F37D000BF00BF21680C3151E811
:10239000001F21F4907021680C3141E80002002AEE
:1023A000F3D100BF00BF00BF2168143151E8001F06
:1023B00021F001002168143141E80002002AF3D124
:1023C00000BF202084F842000020206300BF00BF2F
:1023D00021680C3151E8001F21F0100021680C31F8
:1023E00041E80002002AF3D100BF022060634146A9
:1023F0002046FFF7A5FEBFE605F0800030B106F0ED
:10240000800018B1204600F089FCB5E605F04000D8
:1024100030B106F0400018B1204600F05FFBABE69B
:1024200000BFA9E6A729000810B504460CB9012091
:1024300010BDA06900B100E000BF94F8410028B9C8
:10244000002084F84000204600F02AF8242084F878
:1024500041002068C06820F400502168C860204610
:1024600000F0DEFB2068006920F4904021680861DC
:102470002068406920F02A00216848612068C0680F
:1024800040F400502168C86000206064202084F877
:10249000410084F842000020606300BFC8E70000EC
:1024A00010B586B004460020029003900490059079
:1024B00035492068884265D100BF3448806940F4BE
:1024C0008040324988610846806900F4804001906C
:1024D00000BF00BF00BF0846806940F0040088616B
:1024E0000846806900F00400019000BF00BF481555
:1024F0000290022003900320059002A92448FFF7D0
:1025000031F84FF48060029000200390049002A9FB
:102510001F48FFF727F800BF1C48406940F0010042
:102520001A4948610846406900F00100019000BF67
:1025300000BF18481849086010204860002116485C
:1025400081608021C1600021016141618161C161BF
:10255000FEF786FF08B1FEF7A0F900BF0E48A063A2
:10256000446200BF002211462520FFF727FA2520EC
:10257000FFF714FA002211460E20FFF71FFA0E2073
:10258000FFF70CFA06B010BD003801400010024001
:102590000008014044000240740100207047000020
:1025A000F7B50446154694F84100202836D1019825
:1025B00000B10DB90120FEBD01982062A584E5841B
:1025C00000206064212084F841001548A16B8862D6
:1025D0001448A16BC8621448A16B08630020A16B6A
:1025E000486301AE23681A1D31682B46A06BFEF7C5
:1025F0006BFF6FF040002168086000BF00BF2168DA
:10260000143151E8001F41F080002168143141E885
:102610000002002AF3D100BF0020CCE70220CAE765
:102620000B2A0008632A0008BB29000803498842D6
:1026300002D10021024A117070470000B801002049
:1026400000000020704700BFFEE7000000B58BB01F
:102650002048214908600420486001071E48816025
:102660000021C1604FF4A02101614FF4801141614C
:102670000021017641768176C17601774177FEF7B8
:1026800040FC08B1FEF709F90020069007900120F0
:102690000890002001900290039004900590012082
:1026A00009900E200A9001A90B48FEF7B3F908B172
:1026B000FEF7F3F802210848FEF7F2F808B1FEF73A
:1026C000ECF80548FEF745FD08B1FEF7E6F80BB05B
:1026D00000BD0000006400404C01002010B5074A16
:1026E0000021074800F0EAFB06490860064A00217D
:1026F000064800F0E3FB0649086010BD704D000875
:102700000929000820000020944D0008092800082D
:102710002400002000B585B00020019002900390B5
:10272000049000BF1C48806940F010001A4988617D
:102730000846806900F01000009000BF00BF00BF95
:102740000846806940F0200088610846806900F0F2
:102750002000009000BF00BF00BF0846806940F025
:10276000040088610846806900F00400009000BF02
:1027700000BF012251030948FFF78EF84FF40050C3
:1027800001900120029003900220049001A90348C7
:10279000FEF7E8FE05B000BD001002400010014049
:1027A00010B50B480B4908604FF4612048600021C8
:1027B00008488160C16001610C2141610021816193
:1027C000C161FFF731FE08B1FEF767F810BD0000E8
:1027D00000380140B801002000BFFEE700BFFEE75F
:1027E00008B508490968C9084FF47A72B1FBF2F1DB
:1027F0004143009100BF00BF00994A1E009200298A
:10280000F9D108BD340000208AB040F223103349CA
:10281000086000204860C8608860082008610020C7
:10282000087500BF2E480068401C2D490860084606
:102830000068000A2B490870294800684870AA20DF
:1028400088705520C87011200871222048713320EB
:1028500088714420C871244B0A4620492348FEF75A
:1028600034F820B11E480068401E1D490860204809
:10287000007870BB01201E4908701E48C0791D49B0
:1028800089791C4A52791B4B1B79CDE90532CDE978
:1028900007101848C1788078164A5278154B1B7873
:1028A000CDE90132CDE903011348006800900C48DE
:1028B0000368124A60211248FDF7DAFC0446A2B20E
:1028C0000F491048FFF76CFE10B10020084908704E
:1028D00000BF4FF4FA7000F09BFAA3E71801002044
:1028E0001800002001000020140000204C010020EE
:1028F00000000020090000201C0000201C4E0008E1
:10290000B8000020B801002000BF4FF40051044877
:10291000FEF7B8FF4FF4FA7000F07AFAF5E700001E
:102920000010014010B54FF0E0200069FEF7C0FF35
:1029300001F0C8FF012801D001F012FC10BD00B564
:102940008FB0282105A8FDF750FE14216846FDF739
:102950004CFE012005900004069000200790012005
:10296000099002200C90C1030D914FF4E0110E91DB
:1029700005A8FFF799F908B1FDF78FFF0F20009028
:1029800002200190002002904FF48060039000200C
:10299000049002216846FFF763F808B1FDF77DFF58
:1029A0000FB000BD704770B505466C6A0020E08529
:1029B000E0842046FFF7C5FB70BD70B506460025D4
:1029C000746A20684069C0F3C01594F8410021285A
:1029D00005D125B10020E084204600F08FF8206862
:1029E0004069C0F3801594F84200222805D125B132
:1029F0000020E085204600F03BF8606C40F01000BD
:102A000060642046FFF79DFB70BD70B505466C6A9B
:102A10002868006800F02000F8B90020E08400BFBA
:102A200000BF2168143151E8001F21F080002168A7
:102A3000143141E80002002AF3D100BF00BF00BFFB
:102A400021680C3151E8001F41F0400021680C3131
:102A500041E80002002AF3D102E02046FFF7E6FD3C
:102A600070BD70B50446656A2846FFF7EBFD70BD82
:102A700000BF00BF02680C3252E8002F22F49071B0
:102A800002680C3242E80013002BF3D100BF00BFF4
:102A900000BF0268143252E8002F22F001010268E0
:102AA000143242E80013002BF3D100BF016B01295F
:102AB0000ED100BF00BF02680C3252E8002F22F096
:102AC000100102680C3242E80013002BF3D100BF62
:102AD000202180F8421000210163704710B50446A0
:102AE0002068C06820F040002168C860202084F879
:102AF00041002046FFF79AFD002010BD00BF00BF37
:102B000002680C3252E8002F22F0C00102680C3239
:102B100042E80013002BF3D100BF202180F84110C0
:102B20007047F8B5044694F84200222875D1A06891
:102B3000B0F5805F0CD1206950B90025A66A2068E5
:102B40004068C0F308003080A06A801CA06215E0D5
:102B5000A56A0026A068B0F5805F03D0A06828B9F8
:102B6000206918B920684068287004E0206840682F
:102B700000F07F002870A06A401CA062E08D401E1B
:102B800080B2E085002846D12068C06820F020008F
:102B90002168C8602068C06820F480702168C8601F
:102BA0002068406920F0010021684861202084F8F5
:102BB000420000206063206B012826D100202063A2
:102BC00000BF00BF21680C3151E8001F21F0100048
:102BD00021680C3141E80002002AF3D100BF2068CF
:102BE000006800F0100010280AD100BF00200090FB
:102BF00020680068009020684068009000BF00BF17
:102C0000A18D2046FFF79CFA02E02046FFF7C6FCA4
:102C10000020F8BD01E00020FBE70220F9E70000FA
:102C200070B504462168096921F44051E2681143F6
:102C3000226811612269A1681143626941EA0205B3
:102C40002168C96841F20C62914329432268D1602E
:102C50002168496921F44071A269114322685161D8
:102C60002D4A2168914202D1FEF7D6FF01E0FEF71E
:102C7000C3FF00EBC00101EB001162689200B1FBE1
:102C8000F2F100EBC00202EB001263689B00B2FBA2
:102C9000F3F26423B2FBF3F202EBC20303EB021282
:102CA000A1EB8201322202EB01116422B1FBF2F1AD
:102CB00001F0F00100EBC00202EB001263689B0020
:102CC000B2FBF3F26423B2FBF3F201EB021200EB6E
:102CD000C00101EB001163689B00B1FBF3F100EB55
:102CE000C00303EB00136668B600B3FBF6F364267B
:102CF000B3FBF6F303EBC30606EB0313A1EB83016F
:102D0000322303EB01116423B1FBF3F101F00F0156
:102D100011442268916070BD00380140014691F86D
:102D20004100212828D18868B0F5805F0BD108695F
:102D300048B90A6A1088C0F308000B685860086A2E
:102D4000801C086205E00B6A581C086218780B6842
:102D50005860C88C401E80B2C88458B90868C068E2
:102D600020F080000B68D8600868C06840F0400020
:102D70000B68D860002070470220FCE710B50248BD
:102D8000FFF7E0F910BD0000B801002010B50248BF
:102D9000FDF790FF10BD00004C01002000BFFEE7D2
:102DA00002480068C0F30220704700000CED00E00C
:102DB00010B5002804DB0A07130E054A135406E079
:102DC0000A07140E034A00F00F031B1FD45410BD52
:102DD00000E400E018ED00E0EFF3058070473038C4
:102DE0000A2801D20120704700207047FEF76CFDD1
:102DF000FFF7A5FDFFF78EFCFFF728FCFFF7D0FCDF
:102E000000F016F8FFF76AFC00F028F800BFFEE7B4
:102E100070B50546FFF7E0FF10B16FF0050404E060
:102E2000002415B1284600F0F7FF204670BD0000D1
:102E300010B5FFF7D1FF10B16FF0050409E00648A7
:102E4000006820B9012004490860002401E04FF027
:102E5000FF34204610BD00008800002070B5FFF749
:102E6000BBFF10B16FF005041FE011480068012896
:102E700019D100BF801F0021002804DB0A07130EB0
:102E80000C4A135406E00A07150E0B4A00F00F0314
:102E90001B1FD55400BF00BF02200549086001F088
:102EA00037F8002401E04FF0FF34204670BD0000E9
:102EB0008800002000E400E018ED00E02DE9FF4765
:102EC00080468946144600200390FFF785FF0028BE
:102ED0004ED1B8F1000F4BD0802618258246471EF0
:102EE00044B3206808B1D4F800A0A06900B1A56976
:102EF0002DB1382D03D8207900F0010018B1002041
:102F000004B0BDE8F087606908B160698608A06810
:102F100040B1E0685C2805D3206918B1606908B148
:102F2000012708E0A06830B9E06820B9206910B92D
:102F3000002700E00027012F0CD12169A0684B4633
:102F40003246CDE9005102905146404601F05CFC0A
:102F500003900DE067B903A8B2B24B465146CDE9E4
:102F60000050404601F01EFC012801D000200390D3
:102F70000398C5E72DE9F04105460E461648076857
:102F800016480068001D00F0BFFD681C38B936B156
:102F900012480168091D124800F00CFE1AE07C1965
:102FA0000E4800684460BC4207D20C480168091D05
:102FB0000C48006800F0E4FD0CE008480168091DB9
:102FC0000948006800F0DCFD08480068844201D22E
:102FD00006480460BDE8F0814C0000203800002065
:102FE000F0060020400000203C0000206800002087
:102FF00010B5044600F0EAFD24480068401C23494F
:1030000008602348006840B9214804600846006809
:1030100001280DD100F0FCF90AE01E48006838B91B
:103020001B480068C06AE16A884201D818480460F9
:1030300019480068401C1849086008460068606428
:103040001649E06A0968884202D91449E06A0860B2
:10305000E16A01EB8101124A02EB8100211D00F0BF
:10306000A9FD00F0DDFD0B48006868B10848006864
:10307000C06AE16A884207D24FF08050094908606F
:10308000BFF34F8FBFF36F8F10BD000048000020CB
:103090003800002054000020640000205000002070
:1030A0004002002004ED00E008B500F08FFD12485A
:1030B0000068E8B9114800F053FD114800F050FDD8
:1030C0000E48104908600E480F49086000200F4B59
:1030D0000F4A102100900A2001F05CF806490860B0
:1030E0000846006820B10BA10348006800F058FEB4
:1030F00000F096FD08BD00007C00002004070020C1
:103100001807002074000020780000202C07002001
:103110007C070020546D72510000000010B516E0CD
:1031200000F054FD0C48C068C468201D00F0ECFCA1
:103130000A480068401E0949086009480068401EA6
:103140000749086000F06CFD204600F05FF8044875
:1031500000680028E4D110BDDC06002048000020F3
:103160004400002070B504460D46206C70B1216CFF
:10317000E0680144E160D4E90210884201D321688B
:10318000E1602846226CE168FDF7E2F970BD2DE9A7
:10319000F04104460F4615464FF00008A66B206C20
:1031A00048B9206800282CD1A06801F043FC804673
:1031B0000020A06025E07DB93946226C6068FDF7EB
:1031C000C7F9216C606808446060D4E90101884255
:1031D00017D32068606014E03946226CE068FDF780
:1031E000B7F9216CE068411AE1602168E068884223
:1031F00003D2216CA068411AE160022D01D106B111
:10320000761E701CA0634046BDE8F08110B50446F0
:1032100094F8590030B9206B00F020FD204600F0F2
:103220001DFD1AE094F85900012803D1204600F052
:1032300015FD12E094F85900022801D1012000E0A8
:10324000002050B900BF502080F31188BFF34F8F8A
:10325000BFF36F8F00BF00BFFEE710BD0146084AF5
:10326000126812680AB9012200E000220A600A68A6
:1032700022B9034A1268D268106800E00020704743
:103280007400002030B54FF40053174800F00704D5
:103290002CB1C01D20F00700134C041B1B1B024661
:1032A000124C22600024114D6C60D018083820F0B8
:1032B00007000F4C206000240D4D2D686C600C4DF4
:1032C0002D682C601146441A4C60094C24680C602F
:1032D000084D4C682C60084D4C682C604FF0004441
:1032E000064D2C6030BD0000D40E00208C00002064
:1032F000940000209C00002098000020A8000020DE
:1033000000BFFFF70BFF064800680128F9D94FF00E
:10331000805004490860BFF34F8FBFF36F8FF0E711
:103320004002002004ED00E02DE9F04106460D4684
:1033300017469846069C0DB9246000E02760E663B6
:1033400025640121204600F095FF84F84C80BDE8FB
:10335000F0812DE9F05F82460E4690469B460A9F1B
:103360000C9C4FEA8801A522206BFDF736F9A8F1E5
:103370000100216B01EB800929F0070909F0070022
:1033800008B9012000E0002050B900BF502080F3B0
:103390001188BFF34F8FBFF36F8F00BF00BFFEE7F1
:1033A00086B1002507E0715D04F134004155705D80
:1033B00000B902E06D1C102DF5D300BF00214320A1
:1033C000015502E0002084F83400382F00D337275D
:1033D000E762E76400202065201D00F0CEFB04F1C9
:1033E000180000F0CAFB2461C7F13800A0616462D4
:1033F0000020606584F858005A465146484600F05F
:1034000071FB20600B9808B10B980460BDE8F09F39
:1034100010B5002407E004EB84010F4A02EB8100A1
:1034200000F09EFB641C382CF5D30C4800F098FB90
:103430000B4800F095FB0B4800F092FB0A4800F0A7
:103440008FFB0A4800F08CFB0448094908600448D7
:103450000849086010BD000040020020A0060020BE
:10346000B4060020C8060020DC060020F00600207C
:103470003C0000204000002010B50146164800E046
:10348000006803688B42FBD30246436813448B42B7
:1034900004D143684C682344436001460A464B68A4
:1034A00013440468A34211D10C4C03682468A3425E
:1034B00008D04B680468646823444B6003681B6849
:1034C0000B6005E0054B1B680B6001E003680B60B7
:1034D000884200D0016010BD8C00002094000020C4
:1034E0002DE9F04104460D4616461F464FF00008F0
:1034F00065602461B5420CD8F01BA169884202D3F3
:103500004FF0010811E0211D0948006800F038FB68
:103510000BE0BE4204D2BD4202D34FF0010804E0EA
:10352000211D0448006800F02BFB4046BDE8F081F7
:10353000780000207400002070B5054600F046FBBE
:10354000A86B08B9012400E0002400F069FB2046C4
:1035500070BD70B5054600F039FBA86BE96B884279
:1035600001D1012400E0002400F05AFB204670BD88
:10357000F8B505460F461A480068C068C468201DA3
:1035800000F0C2FA94F8280000F00400E8B1A06945
:1035900041192B463A462046FFF7A2FFD8B100203A
:1035A00003462A4601460090204601F09FFB06464E
:1035B00056B900BF502080F31188BFF34F8FBFF37F
:1035C0006F8F00BF00BFFEE705E094F8280020F0F1
:1035D000010084F828002046216A8847F8BD0000D1
:1035E00074000020F0B587B0A0E00398002811DA3D
:1035F00004AE56B900BF502080F31188BFF34F8F3F
:10360000BFF36F8F00BF00BFFEE7D6E90020B168AF
:10361000904700BF03980028E6DB059C606908B965
:10362000012000E0002010B9201D00F06DFA02A872
:1036300000F0DEF8054603980A2875D2DFE800F0AE
:1036400009050739416306083A4200BF00BF00BFC1
:1036500000BF94F8280040F0010084F82800049886
:10366000A269811803462A462046FFF739FFF8B1C0
:103670002046216A884794F8280000F00400B8B179
:10368000002000900498A1694218002319462046A2
:1036900001F02CFB074657B900BF502080F311887A
:1036A000BFF34F8FBFF36F8F00BF00BFFEE700BFB8
:1036B0003BE000BF94F8280020F0010084F82800C7
:1036C00033E000BF94F8280040F0010084F828009F
:1036D0000498A061A06908B1012000E0002050B961
:1036E00000BF502080F31188BFF34F8FBFF36F8F5F
:1036F00000BF00BFFEE7A06941192B462A462046BD
:10370000FFF7EEFE11E094F8280000F0020018B96F
:10371000204600F0A3FA05E094F8280020F001000C
:1037200084F8280001E0FFE700BF00BF002203A9E2
:103730000448006800F03CFF00287FF456AF07B053
:10374000F0BD00007C000020F8B505460C4600F0F6
:103750003BFC684600F04CF80646009820BB44B994
:10376000B54206D801F004FA31462846FFF700FFBB
:103770001CE03CB10E480068006808B9012000E078
:1037800000200446A91B22460A48006800F01EFBE0
:1037900001F0EEF950B94FF0805007490860BFF3CF
:1037A0004F8FBFF36F8F01E001F0E2F9F8BD000029
:1037B000780000207C00002004ED00E00A49096840
:1037C000096809B9012100E0002121B14FF0FF3162
:1037D000064A116006E004490968C968C868034AD6
:1037E00041681160704700003C0000206800002024
:1037F00070B5044601F076F8054607480068854232
:1038000004D200F00BF80120206001E000202060CD
:1038100001480560284670BD840000202DE9F8436A
:1038200034E025480068C068056823480068C0681F
:10383000C468201D00F068F92046216A884794F882
:10384000280000F0040008B3A0694619AE4207D969
:1038500066602461211D1848006800F091F915E0A8
:10386000002003462A4601460090204601F03EFA19
:10387000074657B900BF502080F31188BFF34F8F20
:10388000BFF36F8F00BF00BFFEE700BF0A480068AC
:10389000006808B9012000E000200028C1D00648D7
:1038A000D0F8008005480068034908600348C0F864
:1038B0000080BDE8F883000074000020780000203C
:1038C0000E480068401C08B9012000E0002050B9F3
:1038D00000BF502080F31188BFF34F8FBFF36F8F6D
:1038E00000BF00BFFEE700BF502080F31188BFF388
:1038F0004F8FBFF36F8F00BF00BFFEE7AC0000200B
:1039000008B500BF6846FFF7A9FC044620460099A9
:10391000FFF71AFFFFF766FEF4E770B5044600F004
:1039200055F994F9455010E0606A08B9012000E0AB
:10393000002038B904F1240001F0CEF818B100F0ED
:10394000A5FA00E003E0681E45B2002DECDC00BFE4
:10395000FF2084F8450000F063F900F037F994F98E
:10396000445010E0206908B9012000E0002048B967
:1039700004F1100001F0B0F808B100F087FA681EF9
:1039800045B200E001E0002DECDC00BFFF2084F830
:10399000440000F045F970BD2DE9F04104464FF0B8
:1039A000000800F011FB4948006808B9FFF76AFCFD
:1039B000474800682040002870D1D4B1083404F092
:1039C0000700B0B104F00700C0F10800044404F09F
:1039D000070008B9012000E0002050B900BF5020C6
:1039E00080F31188BFF34F8FBFF36F8F00BF00BF0D
:1039F000FEE7002C52D03748006884424ED8364E3D
:103A00003046056801E02E462D686868A04202D263
:103A100028680028F7D12D48006885423ED03068DC
:103A200000F10808286830606868001B102819D960
:103A30002F1907F0070008B9012000E0002050B955
:103A400000BF502080F31188BFF34F8FBFF36F8FFB
:103A500000BF00BFFEE76868001B78606C603846F6
:103A6000FFF70AFD1B4968680968081A19490860C8
:103A70000846006819490968884203D21548006859
:103A800016490860124968680968084368600020A0
:103A9000286013480068401C1149086001F068F86C
:103AA00008F0070008B9012000E0002050B900BF6D
:103AB000502080F31188BFF34F8FBFF36F8F00BF8B
:103AC00000BFFEE74046BDE8F08100009400002002
:103AD000A8000020980000208C0000209C000020FE
:103AE000A0000020001F4FF080730360001F21F032
:103AF00001030360001F034B036014380260203889
:103B000070470000C138000801460A69D1E9013058
:103B10009860D1E9010358605068884201D18868F3
:103B20005060002008611068401E106010687047E7
:103B3000034B0360034B0B6080231360704700004E
:103B40001C08002078080020034B0360034B0B6027
:103B50004FF4807313607047780A0020D40A002065
:103B600000F1080141604FF0FF31816000F1080170
:103B7000C16001610021016070470021016170474F
:103B800010B502460B685C1C0CB9106907E002F125
:103B9000080000E04068446824689C42FAD9446800
:103BA0004C604C68A160886041600A611468641CC4
:103BB000146010BD42684A6093688B6093685960D6
:103BC0009160086103685B1C0360704700BF502070
:103BD00080F31188BFF34F8FBFF36F8F00BF0E4884
:103BE0000068401C0C49086008460068012812D192
:103BF0000A480068C0B208B9012000E0002050B9AE
:103C000000BF502080F31188BFF34F8FBFF36F8F39
:103C100000BF00BFFEE77047AC00002004ED00E0ED
:103C20000D48006850B900BF502080F31188BFF3E1
:103C30004F8FBFF36F8F00BF00BFFEE706480068DD
:103C4000401E054908600846006820B9002080F33E
:103C5000118800BF00BF7047AC00002070B5064659
:103C60003546002E44D0083D2C462249606809683C
:103C7000084008B1012000E0002050B900BF5020EA
:103C800080F31188BFF34F8FBFF36F8F00BF00BF6A
:103C9000FEE7206808B9012000E0002050B900BF0D
:103CA000502080F31188BFF34F8FBFF36F8F00BF99
:103CB00000BFFEE70F49606809680840C0B120688E
:103CC000B0B90C49606809688843606000F07CF90D
:103CD0000949606809680844074908602046FFF7F9
:103CE000CBFB06480068401C0449086000F040FF18
:103CF00070BD0000A800002098000020A400002053
:103D000000204FF0E02108618861064800684FF408
:103D10007A71B0FBF1F0401E4FF0E02148610720BE
:103D2000086170473400002070B5FCF77DFA044646
:103D3000102C16D304F1E02090F8F05315480078C9
:103D4000854201DB012000E0002050B900BF502077
:103D500080F31188BFF34F8FBFF36F8F00BF00BF99
:103D6000FEE70D48006800F4E0600C4909688842ED
:103D700001D8012000E0002050B900BF502080F39E
:103D80001188BFF34F8FBFF36F8F00BF00BFFEE7F7
:103D900070BD0000B00000200CED00E0B400002079
:103DA000024600200BE0084B53F8303033B9064B85
:103DB00043F8301003EBC0035A6002E0401C0828AF
:103DC000F1D300BF70470000000200202DE9F04150
:103DD00005460E4617462C46FFF7F8FE94F94400B8
:103DE000401C10B9002084F8440094F94500401CA0
:103DF00010B9002084F84500FFF712FFA06B28B926
:103E00003A46314604F1240000F062F82046FFF7FC
:103E100084FDBDE8F081000070B504460025D4B1F2
:103E20001248006808B9012000E0002050B900BF26
:103E3000502080F31188BFF34F8FBFF36F8F00BF07
:103E400000BFFEE700F0C0F800212046FFF792F81F
:103E500000F08EFE05463DB94FF0805004490860E1
:103E6000BFF34F8FBFF36F8F70BD00007000002055
:103E700004ED00E0034909680160034909684160F5
:103E800070470000600000204C0000200120014924
:103E9000086070475C00002070B504460D4654B9B8
:103EA00000BF502080F31188BFF34F8FBFF36F8F97
:103EB00000BF00BFFEE70548016818312046FFF744
:103EC0005FFE01212846FFF755F870BD380000203D
:103ED00070B505460E46144655B900BF502080F314
:103EE0001188BFF34F8FBFF36F8F00BF00BFFEE796
:103EF0000648016818312846FFF75CFE0CB14FF008
:103F0000FF3621463046FFF735F870BD38000020F7
:103F100010B586B000200590049003AA04A905A856
:103F2000FFF706FE0022DDE904101346CDE900216B
:103F300002901EA11F48039A00F066FC1E4908600B
:103F40000846006808B1012400E00024012C02D1D9
:103F500000F090FE0446012C15D100BF502080F3E4
:103F60001188BFF34F8FBFF36F8F00BF4FF0FF304B
:103F700012490860012012490860002011490860B8
:103F800000F072F810E0601C08B1012000E0002091
:103F900050B900BF502080F31188BFF34F8FBFF39B
:103FA0006F8F00BF00BFFEE706B010BD49444C450F
:103FB00000000000013300086C00002068000020B1
:103FC000540000204C00002002480068401C0149B9
:103FD00008607047700000201E48006818B101207A
:103FE0001D49086034E000201B4908601B48016837
:103FF0000CE051B900BF502080F31188BFF34F8F00
:10400000BFF36F8F00BF00BFFEE7491E01EB8100C9
:10401000134A52F8200008B9012000E000200028CF
:10402000E7D101EB81020E4B03EB8200426852683C
:10403000426000F108024368934202D1426852682C
:1040400042604268D268074B1A600448016000BFB2
:1040500070470000700000205C000020500000202D
:1040600040020020380000201CB53849084600787E
:104070000190FF200A4610700846007800909DF8D5
:10408000000000F0F0009DF80020904201D10120D6
:1040900000E0002050B900BF502080F31188BFF32A
:1040A0004F8FBFF36F8F00BF00BFFEE79DF800008A
:1040B00000F05000264A10700720264A106009E0E0
:1040C00024480068401E234A10609DF80000400606
:1040D000000E00909DF8000000F080008028EFD0D6
:1040E0001C480068C0F10700042801D1012000E04D
:1040F000002050B900BF502080F31188BFF34F8FCC
:10410000BFF36F8F00BF00BFFEE7124800680002D8
:10411000104A10601046008800F4E06010600B4AFE
:10412000019810700C48006840F470000A4908605B
:104130000846006840F070400860FFF7E1FD00208D
:1041400006490860FCF73AF800201CBD00E400E0D6
:10415000B0000020B400002020ED00E0AC00002002
:1041600010B500BF502080F31188BFF34F8FBFF30D
:104170006F8F00BF00F0BCFB18B14FF080500449B6
:10418000086000BF002080F3118800BF10BD000050
:1041900004ED00E02DE9F84380460E4617461D4623
:1041A000DDF82090B8F1000F01D0012000E00020E0
:1041B00050B900BF502080F31188BFF34F8FBFF379
:1041C0006F8F00BF00BFFEE70DB1012000E00020AF
:1041D00050B900BF502080F31188BFF34F8FBFF359
:1041E0006F8F00BF00BFFEE707B10EB1012000E0F6
:1041F000002050B900BF502080F31188BFF34F8FCB
:10420000BFF36F8F00BF00BFFEE707B90EB90120F3
:1042100000E0002050B900BF502080F31188BFF3A8
:104220004F8FBFF36F8F00BF00BFFEE7502000909D
:104230000098502801D1012000E0002050B900BFB3
:10424000502080F31188BFF34F8FBFF36F8F00BFF3
:1042500000BFFEE700BF2C464CB1012084F84600A9
:104260004B463A46314640460094FFF75DF82046FB
:10427000BDE8F88370B505460E462C4654B900BF1C
:10428000502080F31188BFF34F8FBFF36F8F00BFB3
:1042900000BFFEE7FFF79AFCD4E90F12206801FB8C
:1042A0000200A0600020A06320686060E06B401EF8
:1042B000226C216800FB0211E160FF2084F84400B9
:1042C00084F845009EB9206908B9012000E000206B
:1042D000A8B904F1100000F0FFFB80B14FF080504E
:1042E00009490860BFF34F8FBFF36F8F07E004F1F8
:1042F0001000FFF735FC04F12400FFF731FCFFF755
:104300008FFC012070BD000004ED00E02DE9FF43AB
:1043100083B0064688461D464FF00009344654B91E
:1043200000BF502080F31188BFF34F8FBFF36F8F12
:1043300000BF00BFFEE7B8F1000F01D1206C08B943
:10434000012000E0002050B900BF502080F3118808
:10435000BFF34F8FBFF36F8F00BF00BFFEE7022D8B
:1043600002D1E06B012801D1012000E0002050B90A
:1043700000BF502080F31188BFF34F8FBFF36F8FC2
:1043800000BF00BFFEE700F09DFA08B9059808B924
:10439000012000E0002050B900BF502080F31188B8
:1043A000BFF34F8FBFF36F8F00BF00BFFEE700BFAB
:1043B000FFF70CFCA06BE16B884201D3022D28D1E2
:1043C0002A4641462046FEF7E2FE0746606A08B9E3
:1043D000012000E0002068B904F1240000F07CFB1B
:1043E00088B14FF0805032490860BFF34F8FBFF360
:1043F0006F8F08E03FB14FF080502D490860BFF348
:104400004F8FBFF36F8FFFF70BFC012007B0BDE8A4
:10441000F083059818B9FFF703FC0020F6E7B9F11F
:10442000000F04D101A8FFF725FD4FF00109FFF7A8
:10443000F7FBFFF7C9FDFFF7C9FB94F94400401CE7
:1044400010B9002084F8440094F94500401C10B9CC
:10445000002084F84500FFF7E3FB05A901A800F060
:104460005BF9F0B92046FFF774F8A0B104F1100031
:104470000599FFF711FD2046FFF74FFA00F078FB92
:10448000002895D14FF0805009490860BFF34F8F45
:10449000BFF36F8F8CE72046FFF73FFA00F068FB11
:1044A00086E72046FFF739FA00F062FB0020ADE70F
:1044B00004ED00E02DE9F84F07468A4690461E4677
:1044C0003C4654B900BF502080F31188BFF34F8F92
:1044D000BFF36F8F00BF00BFFEE7BAF1000F01D13D
:1044E000206C08B9012000E0002050B900BF502026
:1044F00080F31188BFF34F8FBFF36F8F00BF00BFF2
:10450000FEE7022E02D1E06B012801D1012000E07C
:10451000002050B900BF502080F31188BFF34F8FA7
:10452000BFF36F8F00BF00BFFEE7FFF7FDFB00BFCB
:104530005021EFF3118081F31188BFF34F8FBFF348
:104540006F8F00BF0546A06BE16B884201D3022E3E
:1045500025D194F945B0A06B0090324651462046D3
:10456000FEF715FE0BF1010088B9606A08B9012059
:1045700000E0002050B904F1240000F0ADFA28B1A9
:10458000B8F1000F02D00120C8F8000004E00BF1E0
:10459000010040B284F845004FF0010901E04FF0FE
:1045A000000900BF85F3118800BF4846BDE8F88FB9
:1045B0002DE9F74183B005460E464FF000082C4622
:1045C00054B900BF502080F31188BFF34F8FBFF361
:1045D0006F8F00BF00BFFEE70EB9206C08B9012045
:1045E00000E0002050B900BF502080F31188BFF3D5
:1045F0004F8FBFF36F8F00BF00BFFEE700F062F97F
:1046000008B9059808B9012000E0002050B900BFA2
:10461000502080F31188BFF34F8FBFF36F8F00BF1F
:1046200000BFFEE700BFFFF7D1FAA76BF7B1314635
:104630002046FEF797FD781EA063206908B9012087
:1046400000E0002060B904F1100000F045FA38B134
:104650004FF080502F490860BFF34F8FBFF36F8F2B
:10466000FFF7DEFA012006B0BDE8F081059818B921
:10467000FFF7D6FA0020F6E7B8F1000F04D101A841
:10468000FFF7F8FB4FF00108FFF7CAFAFFF79CFCB1
:10469000FFF79CFA94F94400401C10B9002084F8FC
:1046A000440094F94500401C10B9002084F84500EE
:1046B000FFF7B6FA05A901A800F02EF8F0B92046D8
:1046C000FEF73AFFA0B104F124000599FFF7E4FBDF
:1046D0002046FFF722F900F04BFA0028A3D14FF053
:1046E00080500C490860BFF34F8FBFF36F8F9AE77C
:1046F0002046FFF712F900F03BFA94E72046FFF757
:104700000CF900F035FA2046FEF716FF00288AD093
:104710000020A8E704ED00E070B505460C4655B949
:1047200000BF502080F31188BFF34F8FBFF36F8F0E
:1047300000BF00BFFEE754B900BF502080F31188CE
:10474000BFF34F8FBFF36F8F00BF00BFFEE7FFF7D0
:104750003DFA124802686868131A2068401C08B9BC
:10476000002617E00E4928680968884204D0686866
:10477000904201D801260DE02068984207D92068B0
:10478000C01A20602846FFF775FB002602E00020D3
:1047900020600126FFF744FA304670BD4C0000202F
:1047A000600000202DE9FF4F85B0804689461746FE
:1047B000DDE912ABB800FFF7EFF8064656B15C2012
:1047C000FFF7EAF804460CB1266304E03046FFF731
:1047D00045FA00E000248CB1002084F85900CDE9AE
:1047E00000ABCDE902403A4649464046089BFEF7F9
:1047F000B0FD2046FEF7FCFB012501E04FF0FF3540
:10480000284609B0BDE8F08F2DE9F04F85B0074686
:10481000884691469A46DDE90EB6109C0EB10120FD
:1048200000E0002050B900BF502080F31188BFF392
:104830004F8FBFF36F8F00BF00BFFEE70CB10120A9
:1048400000E0002050B900BF502080F31188BFF372
:104850004F8FBFF36F8F00BF00BFFEE75C20039058
:1048600003985C2801D1012000E0002050B900BF6E
:10487000502080F31188BFF34F8FBFF36F8F00BFBD
:1048800000BFFEE700BFB4B1AEB125462C462E6393
:10489000022085F85900002004A953464A46CDE974
:1048A00000B1CDE9025041463846FEF752FD284698
:1048B000FEF79EFB01E000200490049805B0BDE8DF
:1048C000F08F00000549096809B9012005E0044995
:1048D000096809B9022000E0002070475400002058
:1048E0007000002001490868704700004C0000205B
:1048F0002DE9F0414FF000084348006800287BD1C3
:1049000042480068451C4148056015BB40480068A6
:10491000006808B9012000E0002050B900BF502015
:1049200080F31188BFF34F8FBFF36F8F00BF00BFBD
:10493000FEE737480768374800683549086035485A
:10494000076035480068401C33490860FEF736FFB1
:1049500000BF3248006885423BD300BF2C48006846
:10496000006808B9012000E0002020B14FF0FF30BE
:104970002A4908602CE026480068C068C468666858
:10498000B54202D22548066022E0201DFFF7BCF8A0
:10499000A06A18B104F11800FFF7B6F82049E06AE0
:1049A0000968884202D91E49E06A0860E16A01EBA1
:1049B00081011C4A02EB8100211DFFF7FBF81A4917
:1049C000E06A0968C96A8842C8D34FF00108C5E7A0
:1049D00000BF15480068C06A00EB8000114951F81B
:1049E0002000012801D94FF001081048006808B1E3
:1049F0004FF0010805E0FFE70D480068401C0C4936
:104A000008604046BDE8F081700000204C000020A6
:104A10003C000020400000206000002068000020D2
:104A20005000002040020020380000205C000020E0
:104A30005800002070B505462C460026002D43D0B6
:104A400022480068844201D1012000E0002050B9D2
:104A500000BF502080F31188BFF34F8FBFF36F8FDB
:104A600000BF00BFFEE7206D50B900BF502080F3AB
:104A70001188BFF34F8FBFF36F8F00BF00BFFEE7FA
:104A8000206D401E2065E16CE06A88421CD0206DDC
:104A9000D0B9201DFFF738F8E06CE062E06AC0F1A1
:104AA0003800A0610A49E06A0968884202D90849C9
:104AB000E06A0860E16A01EB8101064A02EB8100CD
:104AC000211DFFF777F80126304670BD3800002021
:104AD000500000204002002070B50646F068C4680F
:104AE00054B900BF502080F31188BFF34F8FBFF33C
:104AF0006F8F00BF00BFFEE704F11800FFF704F856
:104B000015480068A0B9201DFEF7FEFF1349E06AB2
:104B10000968884202D91149E06A0860E16A01EB3C
:104B200081010F4A02EB8100211DFFF743F804E0E9
:104B300004F118010B48FFF73DF80B49E06A0968DA
:104B4000C96A884204D9012501200849086000E0AB
:104B50000025284670BD0000700000205000002095
:104B600040020020C8060020380000205C00002021
:104B700070B5002400263648006850B900BF5020A8
:104B800080F31188BFF34F8FBFF36F8F00BF00BF5B
:104B9000FEE7FFF71BF82E480068401E2C4908600E
:104BA0000846006800284ED12A48006800284AD0EC
:104BB00023E02948C068C46804F11800FEF7A4FF88
:104BC000201DFEF7A1FF2549E06A0968884202D945
:104BD0002249E06A0860E16A01EB8101204A02EBA8
:104BE0008100211DFEF7E6FF1E49E06A0968C96AD7
:104BF000884202D301201C4908601748006808B9A0
:104C0000012000E000200028D3D00CB1FEF7D6FD33
:104C10001648056865B100BFFFF76AFE10B10120B4
:104C2000114908606D1E002DF6D100200F49086063
:104C30000D48006838B1012630070D490860BFF300
:104C40004F8FBFF36F8FFEF7EBFF304670BD000054
:104C50007000002048000020C806002050000020FE
:104C600040020020380000205C0000205800002096
:104C700004ED00E010B586B00024FEF715FA1648E2
:104C80000068D0B100200590049003AA04A905A8EB
:104C9000FEF75AFF0222DDE904100023CDE90021CE
:104CA00002900EA10F48039AFFF7AEFD0E4908606F
:104CB0000846006800B1012400BF54B900BF50206D
:104CC00080F31188BFF34F8FBFF36F8F00BF00BF1A
:104CD000FEE7204606B010BD7C000020546D722017
:104CE0005376630001390008800000202DE9FF475A
:104CF00004460D4616461F46DDF830804FF0000989
:104D000054B900BF502080F31188BFF34F8FBFF319
:104D10006F8F00BF00BFFEE71448006810B3009516
:104D200001960294062D15DAFFF7CCFD022808D172
:104D30000023424669460D480068FFF7E7FA8146BE
:104D400010E000231A46694608480068FFF7DEFABB
:104D5000814607E000233A46694604480068FFF7A9
:104D6000A9FB8146484604B0BDE8F0877C000020DE
:104D7000604E00080000000000000000000000007D
:104D80000000000000020000180000000000000009
:104D900000000000684E0008000000000000000055
:104DA00000000000000000000004000029000000D6
:104DB00000000000000000000203040506070809C7
:104DC0000A0B0C0D0E0F1010010200000000000075
:104DD00000000102030406070809000000000102A8
:104DE00003043031323334353637383941424344A5
:104DF0004546403058003031323334353637383953
:104E00006162636465664030780004000008000059
:104E100000000000000200010000100043414E208D
:104E200054582023256C752052582023256C75205A
:104E3000643D5B25303258202530325820253032F1
:104E4000582025303258202530325820253032580D
:104E5000202530325820253032585D0D0A000000E0
:104E60004C65645461736B00436F6D6D5461736B7B
:104E700000000000944E000800000020B800000070
:104E8000280100084C4F0008B800002080340000C2
:104E900044010008000000000000000000000000C5
:104EA0000000000000000000000000000000000002
:104EB00000000000000000000000000000000000F2
:104EC000100000000100000000127A000000000045
:104ED00000000000000000000000000000000000D2
:104EE00000000000000000000000000000000000C2
:104EF00000000000000000000000000000000000B2
:104F000000000000000000000000000000000000A1
:104F10000000000000000000000000000000000091
:104F20000000000000000000000000000000000081
:104F30000000000000000000000000000000000071
:0C4F4000AAAAAAAA0000000000000000BD
:04000005080000ED02
:00000001FF
