:020000040800F2
:10000000E007002099010008FD240008672400088B
:10001000F92400087F0600083125000800000000D0
:1000200000000000000000000000000003250008A0
:1000300095060008000000000125000805250008BD
:10004000B3010008B3010008B3010008B3010008C0
:10005000B3010008B3010008B3010008B3010008B0
:10006000B3010008B3010008B3010008B3010008A0
:10007000B3010008B301000885060008B3010008B9
:10008000B3010008B3010008B3010008B301000880
:1000900021250008B3010008B3010008B3010008DE
:1000A000B3010008B3010008B3010008B301000860
:1000B000B3010008B3010008B3010008B301000850
:1000C000B3010008B3010008B3010008B301000840
:1000D000B301000811250008B3010008B3010008AE
:1000E000B3010008B3010008B301000800F002F8F2
:1000F00000F042F80AA090E8000C82448344AAF180
:100100000107DA4501D100F037F8AFF2090EBAE87D
:100110000F0013F0010F18BFFB1A43F0010318473B
:100120008C2B0000AC2B0000103A24BF78C878C19B
:10013000FAD8520724BF30C830C144BF04680C60ED
:10014000704700000023002400250026103A28BF35
:1001500078C1FBD8520728BF30C148BF0B60704739
:10016000752900F07D80782900F0B6800020704766
:100170001FB51FBD10B510BD00F047FA1146FFF7BF
:10018000F7FF02F0B3FC00F065FA03B4FFF7F2FFEB
:1001900003BC00F06DFA0000094880470948004799
:1001A000FEE7FEE7FEE7FEE7FEE7FEE7FEE7FEE727
:1001B000FEE7FEE704480549054A064B7047000084
:1001C0000D250008ED000008E0010020E0070020F8
:1001D000E0030020E00300200FB47CB50C0009AA66
:1001E000009001D02044401E084B7B44694601909A
:1001F000089800F0EAF905461CB10020694600F0B5
:10020000F7F928467CBC5DF814FB00000D040000E3
:1002100070B5044685690068C10601D5302600E046
:100220002026C00707D070BDD4E901213046904791
:10023000206A401C20626D1EF6D570BD70B5044664
:1002400085690078C00707D170BDD4E9012120205D
:100250009047206A401C20626D1EF6D570BD0000DC
:100260002DE9F0410646002410687529314616A58F
:1002700010D0AFF30080002802DA404213A507E057
:1002800031688A0701D512A502E0490704D511A5F6
:10029000012401E0AFF3008000210A2206F12407C7
:1002A00009E0B0FBF2FCB0FBF2F302FB1C003030C3
:1002B00078541846491C0028F3D123462A46304674
:1002C000BDE8F04100F022B9000000002D00000060
:1002D0002B0000002000000070B504460D462146AA
:1002E0001068AFF300802188090502D50F4A7A44CF
:1002F00002E00E4A7A440E32002104F1240305E0A4
:1003000000F00F060009965D5E54491C0028F7D1E5
:1003100020780023000704D5702D02D009B10223F4
:1003200011322046BDE8704000F0F0B83C290000D2
:100330002DE9F05F894604464FF0000ADFF874B1FA
:10034000FB44C0F820A02046E1688847002874D00C
:10035000252806D0D4E901219047206A401C20625C
:10036000F1E700265F462046E168884720280546D9
:1003700007DB312D05D2781910F8200C08B106439F
:10038000F1E7B00701D526F00406C4F81CA0002749
:10039000C4F818A02A2D09D0284602F09FFB38B3D4
:1003A00004EB8708303DC8F8185019E059F8041BD1
:1003B000204604EB87029161E1688847012F0546DA
:1003C00018D1E069002820DA26F020061DE0D8F8D0
:1003D000180000EB800005EB40003038C8F818002A
:1003E0002046E1688847054602F078FB0028EED1F8
:1003F000012F0AD02E2D08D12046E16888477F1CA6
:100400000546022F46F02006C4DBA069002803DA67
:10041000404246F00106A061F00701D026F0100628
:100420006C2D0BD0682D09D04C2D39D06A2D35D0CC
:10043000742D35D07A2D33D016E038E0E1682F46A0
:1004400020468847B842054609D16C2F26D04FF484
:100450008060E168064320468847054604E06C2F2B
:100460001AD04FF4807006430DB3A5F1410019284E
:1004700002D8203546F400664A46294620462660C2
:100480004E46FFF76DFE80B101280BD0F61D26F019
:10049000070000F1080956E74020E4E78020D8E78C
:1004A0000020D6E706F104094DE7284652E7206A06
:1004B000BDE8F09F122900004FF0000200B513467E
:1004C00094469646203922BFA0E80C50A0E80C5074
:1004D000B1F12001BFF4F7AF090728BFA0E80C5025
:1004E00048BF0CC05DF804EB890028BF40F8042B1E
:1004F00008BF704748BF20F8022B11F0804F18BF8B
:1005000000F8012B70477047704770472DE9F0479E
:100510000D4699469246044600F124080168880673
:1005200004D5E06921F01001216000E00120A8421B
:1005300001DD471B00E00027A1697A1902EB0900E1
:10054000081AA0612078C00602D42046FFF760FE9A
:10055000002608E0D4E901211AF806009047206A35
:10056000401C761C20624E45F4DB2078C0060AD57C
:100570002046FFF74DFE06E0D4E9012130209047E8
:10058000206A401C2062381EA7F10107F4DC07E056
:10059000D4E9012118F805009047206A401C206228
:1005A000281EA5F10105F3DC2046FFF747FE207861
:1005B000000602D50220BDE8F0870120FBE700001D
:1005C00001694A1C02610878704700B58FB0CDE917
:1005D00001310021059105497944CDE90310114607
:1005E0006846FFF7A5FE0FB000BD0000E5FFFFFF66
:1005F0000A6802F8010B0A607047D1E900239A42A9
:1006000002D2531C0B6010707047754600F02CF836
:10061000AE4605006946534620F00700854618B0EF
:1006200020B5FFF7C7FDBDE820404FF000064FF0B2
:1006300000074FF000084FF0000B21F00701AC4617
:10064000ACE8C009ACE8C009ACE8C009ACE8C00936
:100650008D46704710B50446AFF300802046BDE8D4
:100660001040FFF792BD0000004870477C01002059
:1006700001491820ABBEFEE726000200704700BF0C
:10068000FEE7000010B5024800F01EFD10BD00009E
:100690007C000020704772B600BFFEE710B502462E
:1006A00092F82030012B01D0022B06D1106840694E
:1006B000084314686061002010BD506A40F4802037
:1006C00050620120F8E7F0B504460D461E4694F846
:1006D000207020688368A86800B900E000BF012F7F
:1006E00001D0022F7DD103F0806030B903F00060AB
:1006F00018B903F0805000287ED0C3F301610120B7
:1007000088403060A86860B9B5F800C0E86840EA81
:100710004C5C206800F5C07000EB0110C0F800C010
:100720000FE0D5E901C040EACC00D5F80CC040EAA2
:100730000C00D4F800C00CF5C07C0CEB011CCCF80C
:100740000000D5F810C0206800F5C07000EB011063
:10075000C0F804C0287D01280ED1206800F5C070C3
:1007600000EB0110406840F4807C206800F5C07008
:1007700000EB0110C0F804C0D079000692F806C062
:1007800040EA0C4092F805C040EA0C2092F804C000
:1007900040EA0C00D4F800C00CF5C07C0CEB011C46
:1007A000CCF80C00D078000692F802C040EA0C4069
:1007B00092F801C040EA0C2092F800C040EA0C0018
:1007C000D4F800C00CF5C07C0CEB011CCCF8080080
:1007D000206800F5C07000EB0110006840F0010CCB
:1007E00001E00FE008E0206800F5C07000EB0110A8
:1007F000C0F800C00020F0BD606A40F400106062E4
:100800000120F8E7606A40F4802060620120F2E78E
:10081000F0B504460A46216894F82050012D01D015
:10082000022D74D1D1F8000240F00100C1F800029D
:10083000107D00F01F06012000FA06F3D1F81C021B
:100840009843C1F81C02D069C8B9D1F80C0298438A
:10085000C1F80C02908880B2968940EA064601F5FC
:100860001070576940F83760108880B2168940EAE6
:10087000064601F51070576900EBC7004660D06965
:10088000012819D1D1F80C021843C1F80C02908844
:1008900080B2168840EA064601F51070576940F8A4
:1008A0003760908980B2168940EA064601F51070DB
:1008B000576900EBC7004660906928B9D1F8040277
:1008C0009843C1F8040204E0D1F804021843C1F8C7
:1008D0000402106928B9D1F814029843C1F814022F
:1008E00004E0D1F814021843C1F81402106A012878
:1008F00004D1D1F81C021843C1F81C02D1F800023F
:1009000020F00100C1F800020020F0BDFFE7606A9E
:1009100040F4802060620120F7E7704770B504461C
:1009200094F82050012D01D0022D7DD151B92068BD
:10093000C06800F0030080B9606A40F40010606293
:10094000012070BD2068006900F0030028B9606ACA
:1009500040F4001060620120F3E7206800F5D870D1
:1009600000EB0110006800F004009060906840B94E
:10097000206800F5D87000EB01100068400D106091
:1009800007E0206800F5D87000EB01100068C0088F
:100990005060206800F5D87000EB0110006800F08E
:1009A0000200D060206800F5D87000EB01104068AC
:1009B00000F00F00082802D30820106108E020682A
:1009C00000F5D87000EB0110406800F00F001061D6
:1009D000206800F5D87000EB0110406800F47F40FB
:1009E000000A9061206800F5D87000EB01104068A3
:1009F000000C5061206800F5D87000EB0110806891
:100A00001870206800F5D87000EB0110806800F4C1
:100A10007F40000A5870206800F5D87000EB011084
:100A2000806800F47F0000E03CE0000C98702068D3
:100A300000F5D87000EB01108068000ED8702068B7
:100A400000F5D87000EB0110C0681871206800F53F
:100A5000D87000EB0110C06800F47F40000A5871A4
:100A6000206800F5D87000EB0110C06800F47F002A
:100A7000000C9871206800F5D87000EB0110C06878
:100A8000000ED87131B92068C06840F02000266897
:100A9000F06005E02068006940F0200026683061C1
:100AA00000204EE7606A40F480206062012048E741
:100AB0002DE9F05F04460025206846692068D0F8DB
:100AC0000490206887682068D0F80CA02068D0F8CF
:100AD00010B02068D0F8188006F00100002855D02A
:100AE00007F00100C0B101202168886007F0020012
:100AF00018B1204600F05FFA0EE007F0040010B1D4
:100B000045F4006508E007F0080010B145F4805591
:100B100002E0204600F04EFA07F48070C8B14FF4AE
:100B200080702168886007F4007018B1204600F0DA
:100B300044FA0EE007F4806010B145F4005508E077
:100B400007F4006010B145F4804502E0204600F053
:100B500033FA07F48030C8B14FF4803021688860E0
:100B600007F4003018B1204600F029FA0EE007F42F
:100B7000802010B145F4004508E007F4002010B1D2
:100B800045F4803502E0204600F018FA06F008002F
:100B900038B10AF0100020B145F40075102021682A
:100BA000C86006F0040040B10AF0080028B108202F
:100BB0002168C860204600F0A9F906F0020038B1AB
:100BC0002068C06800F0030010B1204600F0A0F9D2
:100BD00006F0400038B10BF0100020B145F48065FC
:100BE00010202168086106F0200040B10BF00800D9
:100BF00028B1082021680861204600F0A9F906F014
:100C0000100038B12068006900F0030010B12046E0
:100C100000F09FF906F4003040B109F0100028B14F
:100C2000102021684860204600F094F906F48030D6
:100C300040B109F0080028B108202168486020462A
:100C400000F0BEF906F4004088B309F0040078B360
:100C500006F4807020B108F0010008B145F00105EC
:100C600006F4007020B108F0020008B145F002055A
:100C700006F4806020B108F0040008B145F00405D6
:100C800006F40060A0B108F0700088B108F07000B0
:100C9000402817D006DC10280BD020280CD0302894
:100CA00019D10CE0502810D0602814D110E01DE0BC
:100CB00019E045F008050FE045F010050CE045F09F
:100CC000200509E045F0400506E045F0800503E019
:100CD00045F4807500E000BF00BF2068806920F007
:100CE0007000216888610420216848602DB1606A25
:100CF000284360622046FFF710FEBDE8F09F70B504
:100D000004460CB9012070BD94F8200010B92046AB
:100D100000F0B0F82068006840F001002168086029
:100D200000F0D6FC05460DE000F0D2FC401B0A287E
:100D300008D9606A40F400306062052084F8200021
:100D40000120E0E72068406800F001000028EBD0B7
:100D50002068006820F002002168086000F0B8FCFC
:100D600005460DE000F0B4FC401B0A2808D9606A73
:100D700040F400306062052084F820000120C2E7C2
:100D80002068406800F002000028EBD1207E012896
:100D900006D12068006840F080002168086005E006
:100DA0002068006820F0800021680860607E0128CB
:100DB00006D12068006840F040002168086005E026
:100DC0002068006820F0400021680860A07E0128AB
:100DD00006D12068006840F020002168086005E026
:100DE0002068006820F0200021680860E07E01286B
:100DF00006D12068006820F010002168086005E036
:100E00002068006840F0100021680860207F0128F9
:100E100006D12068006840F008002168086005E0FD
:100E20002068006820F0080021680860607F0128C1
:100E300006D12068006840F004002168086005E0E1
:100E40002068006820F0040021680860D4E90201ED
:100E5000084321690843616908436168491E0843E2
:100E60002168C86100206062012084F82000002011
:100E700049E7000010B586B00446002002900390B8
:100E8000049005901E492068884236D100BF1D4855
:100E9000C06940F000701B49C8610846C06900F095
:100EA0000070019000BF00BF00BF0846806940F09D
:100EB000040088610846806900F00400019000BFCA
:100EC00000BFC814029000200390049002A90E48AD
:100ED00000F05EFA4FF4805002900220039003204D
:100EE000059002A9084800F053FA002201211420BD
:100EF00000F074FC142000F061FC06B010BD00008E
:100F000000640040001002400008014070470000EB
:100F100010B504460949206888420ED1084B094A99
:100F200000212046FFF7FAFC38B907480068401C4A
:100F30000549086001200549087010BD00640040A3
:100F400009000020600100201C000020200000207B
:100F500070477047704770B5044694F82000012828
:100F600022D1022084F820002068006820F00100CF
:100F70002168086000F0ACFB05460DE000F0A8FB1E
:100F8000401B0A2808D9606A40F4003060620520DE
:100F900084F82000012070BD2068406800F0010046
:100FA0000028EBD16062F6E7606A40F400206062DE
:100FB0000120F0E7704770477047704770477047EF
:100FC00070470146002291F82100022808D0042031
:100FD000886300BF002081F8200000BF0120704717
:100FE0000868006820F00E000B6818600868006848
:100FF00020F001000B68186091F840300120984003
:10100000CB6B5860012081F8210000BF002081F8DF
:10101000200000BF1046E2E770B50446002594F8B2
:101020002100022803D00420A063012548E02068A5
:10103000006820F00E00216808602068006820F039
:101040000100216808601F492068884201D1012001
:1010500026E01C4914312068884201D110201FE08D
:10106000184928312068884201D1801518E01549B7
:101070003C312068884201D1801411E0114950317F
:101080002068884202D14FF4803009E00D49643174
:101090002068884202D14FF4801001E04FF0807048
:1010A000084908394860012084F8210000BF002069
:1010B00084F8200000BF606B10B12046616B884748
:1010C000284670BD0800024070B50446E06B056814
:1010D0002068066894F840100420884028400028C2
:1010E00046D006F00400002842D02068006800F0D6
:1010F000200028B92068006820F0040021680860FA
:1011000057492068884201D1042027E0544914310E
:101110002068884201D1402020E0514928312068D0
:10112000884201D1001519E04D493C3120688842C0
:1011300002D14FF4804011E0494950312068884283
:1011400002D14FF4802009E045496431206888428B
:1011500002D14FF4800001E04FF08060404908392F
:101160004860E06A00287AD02046E16A884776E045
:1011700094F84010022088402840A0B306F00200F6
:1011800088B32068006800F0200040B9206800683B
:1011900020F00A0021680860012084F8210030490D
:1011A0002068884201D1022028E02D4914312068AE
:1011B000884201D1202021E0294928312068884235
:1011C00001D140151AE026493C312068884202D1FD
:1011D0004FF4005012E0224950312068884203D178
:1011E0004FF400300AE017E01D496431206888425E
:1011F00002D14FF4001001E04FF000701849083997
:10120000486000BF002084F8200000BFA06A30B30F
:101210002046A16A884722E094F8401008208840C0
:101220002840E0B106F00800C8B12068006820F04E
:101230000E002168086094F8401001208840E16B9E
:1012400048600120A06384F8210000BF002084F8DA
:10125000200000BF206B10B12046216B884770BD75
:10126000080002400146002209B901207047164BD0
:101270000868C01A1423B0FBF3F080000864124819
:101280000838C863022081F821000868026843F624
:10129000F0708243D1E901031843CB6818430B690E
:1012A00018434B6918438B691843CB6918430243B1
:1012B0000868026000208863012081F82100002076
:1012C00081F8200000BFD1E7080002402DE9F0417D
:1012D00004460D4616461F464FF0000800BF94F81E
:1012E0002000012802D10220BDE8F081012084F80D
:1012F000200000BF94F8210001282CD1022084F89E
:1013000021000020A0632068006820F0010021680F
:1013100008603B4632462946204601F0AFF9E06AB4
:1013200030B12068006840F00E00216808600BE0D2
:101330002068006820F004002168086020680068C8
:1013400040F00A00216808602068006840F0010051
:101350002168086006E000BF002084F8200000BF7C
:101360004FF002084046BFE770B5044600F0B0F900
:1013700006462546681C10B104480078054400BFA5
:1013800000F0A6F9801BA842FAD370BD2C00002003
:101390002DE9F8470346002294466EE14FF001081C
:1013A00008FA02F4D1F8008008EA0400A0427DD1D6
:1013B000DFF8DCA2D1F80480A8EB0A09D0453AD0C6
:1013C00014DCB8F1030F50D009DCB8F1000F31D0B4
:1013D000B8F1010F1CD0B8F1020F49D120E0B8F1EB
:1013E000110F18D0B8F1120F42D11EE0B9F5881FC5
:1013F00025D006DCB9F5803F20D0B9F5801F37D164
:101400001AE0B9F5001F18D0B9F5041F30D117E064
:10141000D1F80CC02DE0D1F80C8008F1040C28E0C4
:10142000D1F80C8008F1080C23E0D1F80C8008F109
:101430000C0C1EE000BF00BF00BF00BF00BF00BF1C
:10144000D1F80880B8F1000F02D14FF0040C0BE086
:10145000D1F80880B8F1010F03D14FF0080C1C61DE
:1014600002E04FF0080C5C6103E04FF0000C00E07C
:1014700000BF00BFFF2801D8984601E003F104082F
:101480004646FF2802D84FEA820803E0A2F1080886
:101490004FEA88084746D6F800804FF00F0909FA4E
:1014A00007F928EA09080CFA07F900E088E048EA99
:1014B0000908C6F80080D1F8048008F08058B8F117
:1014C000805F7DD100BFDFF8CC81D8F8188048F06C
:1014D0000108DFF8C091C9F81880C846D8F818800C
:1014E00008F00108CDF8008000BF00BF4FEAB9380E
:1014F0004FEA920958F829504FEA82784FEA187952
:101500004FF00F0808FA09F825EA0805DFF8888186
:10151000434502D14FF0000816E0DFF880814345D3
:1015200002D14FF001080FE0DFF87481434502D18A
:101530004FF0020808E0DFF86C81434502D14FF01C
:10154000030801E04FF004084FEA82794FEA197965
:1015500008FA09F848EA0505DFF84C814FEA9209D4
:1015600048F82950D1F8048008F48018B8F5801F95
:101570000AD1DFF83881D8F8008048EA0008DFF89F
:101580002C91C9F8008009E0DFF82081D8F80080AC
:1015900028EA0008DFF81491C9F80080D1F8048027
:1015A00008F40018B8F5001F10D1DFF8008108F129
:1015B0000408D8F8008048EA0008DFF8F09000E05E
:1015C0005AE009F10409C9F800800DE0DFF8DC8079
:1015D00008F10408D8F8008028EA0008DFF8CC9069
:1015E00009F10409C9F80080D1F8048008F4003832
:1015F000B8F5003F0ED1DFF8B480A8F10408D8F8A0
:10160000008048EA0008DFF8A490A9F10409C9F8AD
:1016100000800DE0DFF89480A8F10408D8F800807D
:1016200028EA0008DFF88490A9F10409C9F80080CD
:10163000D1F8048008F48038B8F5803F0ED1DFF887
:101640006C80A8F10808D8F8008048EA0008DFF8A4
:101650005C90A9F10809C9F800800DE0DFF84C8022
:10166000A8F10808D8F8008028EA0008DFF83C90C4
:10167000A9F10809C9F80080521CD1F8008028FAA5
:1016800002F8B8F1000F7FF489AEBDE8F8870000DA
:10169000000011100010024000080140000C014041
:1016A00000100140001401400800014008040140FE
:1016B00010B5C26821EA020302EA010443EA0443C6
:1016C000036110BD0AB1016101E00B0403617047C1
:1016D00001480068704700002400002003480068AB
:1016E0000349097808440149086070472400002034
:1016F0002C00002010B50848006840F01000064992
:101700000860032000F0A8F80F2000F007F800F0B0
:101710002BF8002010BD00000020024070B50446E8
:101720000E4800784FF47A71B1FBF0F00C4909686B
:10173000B1FBF0F5284600F0F9FB08B1012070BDBF
:10174000102C07D200222146501E00F047F8054811
:10175000046001E00120F2E70020F0E72C00002007
:10176000300000202800002008B500BF1148806923
:1017700040F001000F4988610846806900F00100CF
:10178000009000BF00BF00BF0846C06940F0805015
:10179000C8610846C06900F08050009000BF00BFDB
:1017A00000BF0549486820F0E06040F000704860E4
:1017B00000BF08BD0010024000000140014608467D
:1017C000002809DB00F01F0301229A4043099B0017
:1017D00003F1E023C3F8002100BF70472DE9F05F5B
:1017E00080460D461646002701F070F90746394637
:1017F0002A46334601F00700C0F1070ABAF1040F88
:1018000002D94FF0040A01E0C0F1070AD14600F105
:10181000040ABAF1070F02D24FF0000A01E0A0F16A
:10182000030AD4464FF0010A0AFA09FAAAF1010A9A
:101830000AEA020A0AFA0CFA4FF0010B0BFA0CFB47
:10184000ABF1010B0BEA030B4AEA0B0421464046BD
:1018500001F028F9BDE8F09F00BF00F00702064B39
:1018600019684FF6FF031940044B0B4343EA02216A
:10187000014B196000BF70470CED00E00000FA0555
:1018800070B504460D460CB9012070BD5A48006879
:1018900000F00700A8420ED25748006820F0070069
:1018A0002843554908600846006800F00700A84230
:1018B00001D00120E9E7207800F0020002281DD1C4
:1018C000207800F00400042805D14C48406840F41A
:1018D000E0604A494860207800F00800082805D1F7
:1018E0004648406840F46050444948604348406876
:1018F00020F0F000A168084340494860207800F0DB
:10190000010078B36068012806D13C48006800F403
:10191000003090B90120B8E76068022806D1374846
:10192000006800F0007040B90120AEE7334800685D
:1019300000F0020008B90120A7E73048406820F015
:101940000300616808432D494860FFF7C1FE064661
:1019500009E0FFF7BDFE801B41F28831884202D9C1
:10196000032092E707E02548406800F00C0061681A
:10197000B0EB810FEDD12048006800F00700A842CD
:101980000ED91D48006820F0070028431A49086056
:101990000846006800F00700A84201D0012074E763
:1019A000207800F00400042807D11448406820F48F
:1019B000E060E168084311494860207800F00800C1
:1019C000082808D10D48406820F46050216940EA99
:1019D000C1000A49486000F03FF808494968C1F36E
:1019E0000311074A515CC840064908600648006870
:1019F000FFF794FE002048E700200240001002405C
:101A0000162C000830000020280000200148006843
:101A1000704700003000002000B5FFF7F7FF0449D1
:101A20004968C1F30221034A515CC84000BD00006F
:101A300000100240262C000800B5FFF7E7FF04491C
:101A40004968C1F3C221034A515CC84000BD00008F
:101A500000100240262C000870B50021002200244E
:101A600000230020134D696801F00C05EDB1042D31
:101A700002D0082D1AD101E00F4819E00F4DC1F333
:101A80008346AB5D01F4803555B10A4D6D68C5F3F1
:101A900040450B4E725D084D5D43B5FBF2F402E02C
:101AA000084D03FB05F4204602E000BF024800BFDA
:101AB00000BF70BD0010024000127A00042C000824
:101AC000142C000800093D00F8B504460CB90120AB
:101AD000F8BD207800F00100002878D0F848406870
:101AE00000F00C0004280CD0F548406800F00C0011
:101AF000082811D1F248406800F48030B0F5803FEA
:101B00000AD1EF48006800F4003000285FD0606818
:101B100000285CD10120DBE700BF6068B0F5803FA2
:101B200006D1E748006840F48030E549086028E0C5
:101B3000606858B9E248006820F48030E0490860E5
:101B40000846006820F4802008601AE06068B0F55C
:101B5000A02F0BD1DA48006840F48020D8490860F3
:101B60000846006840F4803008600AE0D448006805
:101B700020F48030D24908600846006820F48020B4
:101B8000086000BF606888B1FFF7A2FD054606E067
:101B9000FFF79EFD401B642801D9032098E7C84841
:101BA000006800F400300028F2D010E0FFF790FD4C
:101BB000054606E0FFF78CFD401B642801D9032091
:101BC00086E7BF48006800F400300028F2D1207892
:101BD00000F00200022857D1B948406800F00C001C
:101BE00050B1B748406800F00C00082818D1B4483C
:101BF000406800F4803098B9B148006800F00200F5
:101C000020B12069012801D0012061E7AC480068BB
:101C100020F0F800616940EAC100A949086033E09A
:101C20002069E8B10120A7490860FFF751FD05468A
:101C300006E0FFF74DFD401B022801D9032047E7CE
:101C40009F48006800F002000028F2D09C4800681D
:101C500020F0F800616940EAC1009949086013E08A
:101C6000002098490860FFF733FD054606E0FFF7BE
:101C70002FFD401B022801D9032029E79048006866
:101C800000F002000028F2D1207800F008000828B7
:101C90002DD1A069B8B101208B490860FFF718FD6C
:101CA000054606E0FFF714FD401B022801D903207A
:101CB0000EE78348406A00F002000028F2D00120BD
:101CC00000F0F2FC13E000207F490860FFF700FD00
:101CD000054606E0FFF7FCFC401B022801D9032063
:101CE000F6E67748406A00F002000028F2D120783A
:101CF00000F00400042873D100277148C06900F087
:101D0000805070B900BF6E48C06940F080506C4987
:101D1000C8610846C06900F08050009000BF00BF55
:101D200001276A48006800F48070B0B9674800680D
:101D300040F4807065490860FFF7CAFC054606E07C
:101D4000FFF7C6FC401B642801D90320C0E65F48AA
:101D5000006800F480700028F2D000BFE06801281D
:101D600006D15748006A40F001005549086227E053
:101D7000E06858B95248006A20F0010050490862F2
:101D80000846006A20F00400086219E0E0680528AF
:101D90000BD14B48006A40F00400494908620846EC
:101DA000006A40F0010008620AE04548006A20F03D
:101DB0000100434908620846006A20F004000862F6
:101DC00000BFE068A0B1FFF783FC054609E0FFF71C
:101DD0007FFC401B41F28831884202D9032077E61C
:101DE00022E03748006A00F002000028EFD012E03D
:101DF000FFF76EFC054608E0FFF76AFC401B41F266
:101E00008831884201D9032062E62D48006A00F03B
:101E100002000028F0D1012F05D12948C06920F027
:101E200080502749C86100BFE069C8B324484068B2
:101E300000F00C00082860D0E069022848D100209A
:101E400020490866FFF744FC054606E0FFF740FC22
:101E5000401B022801D903203AE61948006800F027
:101E600000700028F2D1206AB0F5803F07D11448F5
:101E7000406820F40030A168084311494860D4E963
:101E8000080108430E49496821F4741108430C49BC
:101E9000486001200B490866FFF71AFC054607E079
:101EA0003DE0FFF715FC401B022801D903200FE697
:101EB0000348006800F000700028F2D02FE0000016
:101EC0000010024000004242800442420070004084
:101ED000002014490866FFF7FBFB054606E0FFF704
:101EE000F7FB401B022801D90320F1E50E480068EA
:101EF00000F000700028F2D111E0E069012800D163
:101F0000E6E50948466806F48031206A814204D13A
:101F100006F47011606A814201D00120D8E50020EA
:101F2000D6E50000000042420010024070B50446B1
:101F30002546681EB0F1807F01D301200FE0681EA6
:101F40004FF0E02148610F214FF0FF3000F0AAFD73
:101F500000204FF0E021886107200861002070BD5B
:101F6000704770472DE9F84F0446206805682068DF
:101F7000C668206847694FF00009CA4605F00F0996
:101F8000B9F1000F0AD105F0200038B106F02000A9
:101F900020B1204600F042FCBDE8F88FB9F1000FF7
:101FA0007BD007F0010018B906F49070002874D0B7
:101FB00005F0010030B106F4807018B1606C40F09B
:101FC0000100606405F0040030B107F0010018B1B1
:101FD000606C40F00200606405F0020030B107F070
:101FE000010018B1606C40F00400606405F0080066
:101FF00048B106F0200010B907F0010018B1606C7C
:1020000040F008006064606C002845D005F02000B6
:1020100028B106F0200010B1204600F0FFFB206838
:102020004069C0F3801A606C00F0080010B9BAF182
:10203000000F2CD0204600F0A6FC2068406900F07C
:10204000400000B300BF00BF2168143151E8001FF9
:1020500021F040002168143141E80002002AF3D148
:1020600000BFE06B50B17748E16B4863E06BFEF76F
:10207000D3FF88B1E06B416B88470DE02046FFF746
:1020800070FF09E009E02046FFF76BFF04E02046FF
:10209000FFF767FF002060647EE7206B012877D19F
:1020A00005F01000002873D006F010000028FAD0C8
:1020B00000BF002000902068006800902068406801
:1020C000009000BF00BF2068406900F04000002879
:1020D0005FD0E06B006840681FFA80F8B8F1000F2D
:1020E00055D0A08D404552DDA4F82E80E06B80696C
:1020F000202843D000BF00BF21680C3151E8001FE9
:1021000021F4807021680C3141E80002002AF3D1EB
:1021100000BF00BF00BF2168143151E8001F21F04B
:1021200001002168143141E80002002AF3D100BF08
:1021300000BF00BF2168143151E8001F21F04000AA
:102140002168143141E80002002AF3D100BF2020A9
:1021500084F842000020206300BF00BF21680C31DA
:1021600051E8001F21F0100021680C3141E8000205
:10217000002AF3D100BFE06BFEF723FF022060636B
:10218000A08DE28D801A81B22046FFF7E9FE03E7B9
:1021900042E0A08DE18D401A1FFA80F8E08DD0B3A7
:1021A000B8F1000F37D000BF00BF21680C3151E8F3
:1021B000001F21F4907021680C3141E80002002AD0
:1021C000F3D100BF00BF00BF2168143151E8001FE8
:1021D00021F001002168143141E80002002AF3D106
:1021E00000BF202084F842000020206300BF00BF11
:1021F00021680C3151E8001F21F0100021680C31DA
:1022000041E80002002AF3D100BF0220606341468A
:102210002046FFF7A5FEBFE605F0800030B106F0CE
:10222000800018B1204600F077FBB5E605F04000CD
:1022300030B106F0400018B1204600F0EDFBABE6EF
:1022400000BFA9E6392A000810B504460CB90120E0
:1022500010BDA06900B100E000BF94F8410028B9AA
:10226000002084F84000204600F02AF8242084F85A
:1022700041002068C06820F400502168C8602046F2
:1022800000F04EFA2068006920F49040216808614F
:102290002068406920F02A00216848612068C068F1
:1022A00040F400502168C86000206064202084F859
:1022B000410084F842000020606300BFC8E70000CE
:1022C00010B586B00446002002900390049005905B
:1022D00035492068884264D100BF3448806940F4A1
:1022E0008040324988610846806900F4804001904E
:1022F00000BF00BF00BF0846806940F0040088614D
:102300000846806900F00400019000BF00BF00BFD4
:102310000846406940F0010048610846406900F005
:102320000100019000BF00BF4815029002200390F9
:102330000320059002A91E48FFF72AF84FF4806099
:10234000029000200390049002A91948FFF720F89A
:10235000184819490860102048600021164881601B
:102360008021C1600021016141618161C161FEF78D
:1023700079FF08B1FEF78FF900BF0F48A0634462F0
:1023800000BF002211462520FFF728FA2520FFF77D
:1023900015FA002211460E20FFF720FA0E20FFF753
:1023A0000DFA06B010BD00000038014000100240D8
:1023B00000080140440002407C00002070470000FB
:1023C000F7B50446154694F84100202836D1019807
:1023D00000B10DB90120FEBD01982062A584E584FD
:1023E00000206064212084F841001548A16B8862B8
:1023F0001448A16BC8621448A16B08630020A16B4C
:10240000486301AE23681A1D31682B46A06BFEF7A6
:102410005DFF6FF040002168086000BF00BF2168C9
:10242000143151E8001F41F080002168143141E867
:102430000002002AF3D100BF0020CCE70220CAE747
:102440004D2A000879290008D1260008034988424E
:1024500002D10021024A11707047000034000020B0
:1024600000000020704700BFFEE7000000B585B007
:102470000020019002900390049000BF1C488069E6
:1024800040F010001A4988610846806900F0100089
:10249000009000BF00BF00BF0846806940F02000E8
:1024A00088610846806900F02000009000BF00BFEE
:1024B00000BF0846806940F00400886108468069D2
:1024C00000F00400009000BF00BF01225103094842
:1024D000FFF7F8F84FF400500190012002900390AC
:1024E0000220049001A90348FEF752FF05B000BD89
:1024F000001002400010014000BFFEE700BFFEE7F1
:102500007047704710B5FFF7E9F810BD704700003D
:1025100010B50248FFF726FD10BD00003400002072
:1025200010B50248FEF7C4FA10BD000020010020DB
:1025300000BFFEE700B58FB0282105A8FDF7BCFF5E
:1025400014216846FDF7B8FF0120059000040690AD
:10255000002007900120099002200C90C1030D91EA
:102560004FF4E0110E9105A8FFF7AEFA08B1FEF79F
:1025700092F80F20009002200190002002904FF46A
:10258000806003900020049002216846FFF778F9EC
:1025900008B1FEF780F80FB000BD000000B58BB0A9
:1025A00025482649086004204860010723488160C7
:1025B0000021C1604FF4A02101614FF480114161FD
:1025C0000021017641768176C17601774177FEF769
:1025D00096FB08B1FEF75FF840F223101849086037
:1025E00000204860C86088600820086100200875E5
:1025F000069007900120089000200190029003901F
:1026000004900590012009900E200A9001A90B4822
:10261000FEF7FEF808B1FEF73EF802210748FEF784
:102620003DF808B1FEF737F80448FEF794FC08B10E
:10263000FEF731F80BB000BD00640040200100201F
:102640004801002010B50B480B4908604FF4612089
:102650004860002108488160C16001610C2141612E
:1026600000218161C161FFF7EFFD08B1FEF713F8AA
:1026700010BD0000003801403400002030B590F853
:1026800040500124AC40C56B6C60046863604468D2
:10269000102C04D10468A2600468E16003E00468BF
:1026A000A1600468E26030BD08B508490968C9083E
:1026B0004FF47A72B1FBF2F14143009100BF00BFC9
:1026C00000994A1E00920029F9D108BD300000206F
:1026D00070B506460025746A20684069C0F3C015CD
:1026E00094F84100212805D125B10020E08420463E
:1026F00000F07FF920684069C0F3801594F842002B
:10270000222805D125B10020E085204600F03BF9C4
:10271000606C40F0100060642046FFF722FC70BD42
:1027200070B504462168096921F44051E2681143FB
:10273000226811612269A1681143626941EA0205B8
:102740002168C96841F20C62914329432268D16033
:102750002168496921F44071A269114322685161DD
:102760002D4A2168914202D1FFF766F901E0FFF797
:1027700053F900EBC00101EB001162689200B1FB5C
:10278000F2F100EBC00202EB001263689B00B2FBA7
:10279000F3F26423B2FBF3F202EBC20303EB021287
:1027A000A1EB8201322202EB01116422B1FBF2F1B2
:1027B00001F0F00100EBC00202EB001263689B0025
:1027C000B2FBF3F26423B2FBF3F201EB021200EB73
:1027D000C00101EB001163689B00B1FBF3F100EB5A
:1027E000C00303EB00136668B600B3FBF6F3642680
:1027F000B3FBF6F303EBC30606EB0313A1EB830174
:10280000322303EB01116423B1FBF3F101F00F015B
:1028100011442268916070BD00380140F8B504464B
:1028200094F84200222875D1A068B0F5805F0CD1E1
:10283000206950B90025A66A20684068C0F30800E6
:102840003080A06A801CA06215E0A56A0026A068FE
:10285000B0F5805F03D0A06828B9206918B9206856
:102860004068287004E02068406800F07F0028700D
:10287000A06A401CA062E08D401E80B2E085002866
:1028800046D12068C06820F020002168C860206818
:10289000C06820F480702168C8602068406920F01A
:1028A000010021684861202084F842000020606314
:1028B000206B012826D10020206300BF00BF2168C3
:1028C0000C3151E8001F21F0100021680C3141E863
:1028D0000002002AF3D100BF2068006800F0100059
:1028E00010280AD100BF00200090206800680090E6
:1028F00020684068009000BF00BFA18D2046FFF710
:102900002FFB02E02046FFF759FD0020F8BD01E053
:102910000020FBE70220F9E7014691F84100212859
:1029200028D18868B0F5805F0BD1086948B90A6A78
:102930001088C0F308000B685860086A801C0862A1
:1029400005E00B6A581C086218780B685860C88C40
:10295000401E80B2C88458B90868C06820F0800062
:102960000B68D8600868C06840F040000B68D86009
:10297000002070470220FCE770B50446656A2846CF
:10298000FFF770FD70BD00BF00BF02680C3252E857
:10299000002F22F4907102680C3242E80013002BE1
:1029A000F3D100BF00BF00BF0268143252E8002F0D
:1029B00022F001010268143242E80013002BF3D127
:1029C00000BF016B01290ED100BF00BF02680C32AD
:1029D00052E8002F22F0100102680C3242E8001386
:1029E000002BF3D100BF202180F8421000210163A9
:1029F000704700BF00BF02680C3252E8002F22F07F
:102A0000C00102680C3242E80013002BF3D100BF72
:102A1000202180F84110704710B504462068C06836
:102A200020F040002168C860202084F84100204642
:102A3000FFF70CFD002010BD70B505466C6A002044
:102A4000E085E0842046FFF78CFA70BD70B505463E
:102A50006C6A2868006800F02000F8B90020E08463
:102A600000BF00BF2168143151E8001F21F0800031
:102A70002168143141E80002002AF3D100BF00BFF1
:102A800000BF21680C3151E8001F41F0400021686F
:102A90000C3141E80002002AF3D102E02046FFF7A2
:102AA000D5FC70BD10B5002804DB0A07130E054ADB
:102AB000135406E00A07140E034A00F00F031B1F0D
:102AC000D45410BD00E400E018ED00E002480068B6
:102AD000C0F30220704700000CED00E030380A28F7
:102AE00001D2012070470020704700008AB0FEF735
:102AF00001FEFFF71FFDFFF7B9FCFFF7A3FDFFF78E
:102B00004DFD64E04FF400513148FEF7D1FD3148EE
:102B10000068401C2F49086008460068000A2E49DA
:102B200008702C4800684870AA2088705520C8702A
:102B30001120087122204871332088714420C87107
:102B4000264B0A4626492748FDF7BDFD20B12148FE
:102B50000068401E1F490860002023490870234870
:102B6000007880BB0120214908702148C0792049A4
:102B700089791F4A52791E4B1B79CDE90532CDE97F
:102B800007101B48C1788078194A5278184B1B7877
:102B9000CDE90132CDE903011648006800900D48E7
:102BA0000368154A60211548FDF716FB0446A2B2DA
:102BB00012491348FFF704FC20B100200B490870AC
:102BC000FDF769FD00BF4FF4FA70FEF7CDFB99E702
:102BD0000010014018000020010000201400002017
:102BE00048010020200100202000002000000020DB
:102BF000090000201C000020682C0008C0000020F4
:102C00003400002002030405060708090A0B0C0D16
:102C10000E0F101001020000000000000000010271
:102C20000304060708090000000001020304303114
:102C300032333435363738394142434445464030E3
:102C40005800303132333435363738396162636495
:102C500065664030780004000008000000000000B5
:102C6000000200010000100043414E205458202370
:102C7000256C752052582023256C7520643D5B25FA
:102C80003032582025303258202530325820253017
:102C90003258202530325820253032582025303205
:102CA0005820253032585D0D0A000000CC2C000859
:102CB000000000203400000028010008002D00085A
:102CC00034000020AC0700004401000800000000B0
:102CD00000000000000000000000000000000000F4
:102CE00000000000000000000000000000000000E4
:102CF00000000000100000000100000000127A0037
:04000005080000ED02
:00000001FF
